{"abi":[{"type":"constructor","inputs":[],"stateMutability":"nonpayable"},{"type":"function","name":"MAX_SUPPLY","inputs":[],"outputs":[{"name":"","type":"uint256","internalType":"uint256"}],"stateMutability":"view"},{"type":"function","name":"allowance","inputs":[{"name":"owner","type":"address","internalType":"address"},{"name":"spender","type":"address","internalType":"address"}],"outputs":[{"name":"","type":"uint256","internalType":"uint256"}],"stateMutability":"view"},{"type":"function","name":"approve","inputs":[{"name":"spender","type":"address","internalType":"address"},{"name":"value","type":"uint256","internalType":"uint256"}],"outputs":[{"name":"","type":"bool","internalType":"bool"}],"stateMutability":"nonpayable"},{"type":"function","name":"balanceOf","inputs":[{"name":"account","type":"address","internalType":"address"}],"outputs":[{"name":"","type":"uint256","internalType":"uint256"}],"stateMutability":"view"},{"type":"function","name":"burn","inputs":[{"name":"value","type":"uint256","internalType":"uint256"}],"outputs":[],"stateMutability":"nonpayable"},{"type":"function","name":"burnFrom","inputs":[{"name":"account","type":"address","internalType":"address"},{"name":"value","type":"uint256","internalType":"uint256"}],"outputs":[],"stateMutability":"nonpayable"},{"type":"function","name":"decimals","inputs":[],"outputs":[{"name":"","type":"uint8","internalType":"uint8"}],"stateMutability":"pure"},{"type":"function","name":"mint","inputs":[{"name":"to","type":"address","internalType":"address"},{"name":"amount","type":"uint256","internalType":"uint256"}],"outputs":[],"stateMutability":"nonpayable"},{"type":"function","name":"name","inputs":[],"outputs":[{"name":"","type":"string","internalType":"string"}],"stateMutability":"view"},{"type":"function","name":"owner","inputs":[],"outputs":[{"name":"","type":"address","internalType":"address"}],"stateMutability":"view"},{"type":"function","name":"renounceOwnership","inputs":[],"outputs":[],"stateMutability":"nonpayable"},{"type":"function","name":"symbol","inputs":[],"outputs":[{"name":"","type":"string","internalType":"string"}],"stateMutability":"view"},{"type":"function","name":"totalSupply","inputs":[],"outputs":[{"name":"","type":"uint256","internalType":"uint256"}],"stateMutability":"view"},{"type":"function","name":"transfer","inputs":[{"name":"to","type":"address","internalType":"address"},{"name":"value","type":"uint256","internalType":"uint256"}],"outputs":[{"name":"","type":"bool","internalType":"bool"}],"stateMutability":"nonpayable"},{"type":"function","name":"transferFrom","inputs":[{"name":"from","type":"address","internalType":"address"},{"name":"to","type":"address","internalType":"address"},{"name":"value","type":"uint256","internalType":"uint256"}],"outputs":[{"name":"","type":"bool","internalType":"bool"}],"stateMutability":"nonpayable"},{"type":"function","name":"transferOwnership","inputs":[{"name":"newOwner","type":"address","internalType":"address"}],"outputs":[],"stateMutability":"nonpayable"},{"type":"event","name":"Approval","inputs":[{"name":"owner","type":"address","indexed":true,"internalType":"address"},{"name":"spender","type":"address","indexed":true,"internalType":"address"},{"name":"value","type":"uint256","indexed":false,"internalType":"uint256"}],"anonymous":false},{"type":"event","name":"Minted","inputs":[{"name":"to","type":"address","indexed":true,"internalType":"address"},{"name":"amount","type":"uint256","indexed":false,"internalType":"uint256"}],"anonymous":false},{"type":"event","name":"OwnershipTransferred","inputs":[{"name":"previousOwner","type":"address","indexed":true,"internalType":"address"},{"name":"newOwner","type":"address","indexed":true,"internalType":"address"}],"anonymous":false},{"type":"event","name":"Transfer","inputs":[{"name":"from","type":"address","indexed":true,"internalType":"address"},{"name":"to","type":"address","indexed":true,"internalType":"address"},{"name":"value","type":"uint256","indexed":false,"internalType":"uint256"}],"anonymous":false},{"type":"error","name":"ERC20InsufficientAllowance","inputs":[{"name":"spender","type":"address","internalType":"address"},{"name":"allowance","type":"uint256","internalType":"uint256"},{"name":"needed","type":"uint256","internalType":"uint256"}]},{"type":"error","name":"ERC20InsufficientBalance","inputs":[{"name":"sender","type":"address","internalType":"address"},{"name":"balance","type":"uint256","internalType":"uint256"},{"name":"needed","type":"uint256","internalType":"uint256"}]},{"type":"error","name":"ERC20InvalidApprover","inputs":[{"name":"approver","type":"address","internalType":"address"}]},{"type":"error","name":"ERC20InvalidReceiver","inputs":[{"name":"receiver","type":"address","internalType":"address"}]},{"type":"error","name":"ERC20InvalidSender","inputs":[{"name":"sender","type":"address","internalType":"address"}]},{"type":"error","name":"ERC20InvalidSpender","inputs":[{"name":"spender","type":"address","internalType":"address"}]},{"type":"error","name":"EuroToken__MaxSupplyExceeded","inputs":[]},{"type":"error","name":"OwnableInvalidOwner","inputs":[{"name":"owner","type":"address","internalType":"address"}]},{"type":"error","name":"OwnableUnauthorizedAccount","inputs":[{"name":"account","type":"address","internalType":"address"}]}],"bytecode":{"object":"0x60a060405234801561000f575f5ffd5b50336040518060400160405280600981526020017f4575726f546f6b656e00000000000000000000000000000000000000000000008152506040518060400160405280600481526020017f4555525400000000000000000000000000000000000000000000000000000000815250816003908161008c9190610443565b50806004908161009c9190610443565b5050505f73ffffffffffffffffffffffffffffffffffffffff168173ffffffffffffffffffffffffffffffffffffffff160361010f575f6040517f1e4fbdf70000000000000000000000000000000000000000000000000000000081526004016101069190610551565b60405180910390fd5b61011e8161013260201b60201c565b50655af3107a40006080818152505061056a565b5f60055f9054906101000a900473ffffffffffffffffffffffffffffffffffffffff1690508160055f6101000a81548173ffffffffffffffffffffffffffffffffffffffff021916908373ffffffffffffffffffffffffffffffffffffffff1602179055508173ffffffffffffffffffffffffffffffffffffffff168173ffffffffffffffffffffffffffffffffffffffff167f8be0079c531659141344cd1fd0a4f28419497f9722a3daafe3b4186f6b6457e060405160405180910390a35050565b5f81519050919050565b7f4e487b71000000000000000000000000000000000000000000000000000000005f52604160045260245ffd5b7f4e487b71000000000000000000000000000000000000000000000000000000005f52602260045260245ffd5b5f600282049050600182168061027057607f821691505b6020821081036102835761028261022c565b5b50919050565b5f819050815f5260205f209050919050565b5f6020601f8301049050919050565b5f82821b905092915050565b5f600883026102e57fffffffffffffffffffffffffffffffffffffffffffffffffffffffffffffffff826102aa565b6102ef86836102aa565b95508019841693508086168417925050509392505050565b5f819050919050565b5f819050919050565b5f61033361032e61032984610307565b610310565b610307565b9050919050565b5f819050919050565b61034c83610319565b6103606103588261033a565b8484546102b6565b825550505050565b5f5f905090565b610377610368565b610382818484610343565b505050565b5f5b828110156103a85761039d5f82840161036f565b600181019050610389565b505050565b601f8211156103fb57828211156103fa576103c781610289565b6103d08361029b565b6103d98561029b565b60208610156103e6575f90505b8083016103f582840382610387565b505050505b5b505050565b5f82821c905092915050565b5f61041b5f1984600802610400565b1980831691505092915050565b5f610433838361040c565b9150826002028217905092915050565b61044c826101f5565b67ffffffffffffffff811115610465576104646101ff565b5b61046f8254610259565b61047a8282856103ad565b5f60209050601f8311600181146104ab575f8415610499578287015190505b6104a38582610428565b86555061050a565b601f1984166104b986610289565b5f5b828110156104e0578489015182556001820191506020850194506020810190506104bb565b868310156104fd57848901516104f9601f89168261040c565b8355505b6001600288020188555050505b505050505050565b5f73ffffffffffffffffffffffffffffffffffffffff82169050919050565b5f61053b82610512565b9050919050565b61054b81610531565b82525050565b5f6020820190506105645f830184610542565b92915050565b60805161135f6105895f395f8181610413015261043f015261135f5ff3fe608060405234801561000f575f5ffd5b50600436106100fe575f3560e01c806370a082311161009557806395d89b411161006457806395d89b4114610286578063a9059cbb146102a4578063dd62ed3e146102d4578063f2fde38b14610304576100fe565b806370a0823114610212578063715018a61461024257806379cc67901461024c5780638da5cb5b14610268576100fe565b8063313ce567116100d1578063313ce5671461019e57806332cb6b0c146101bc57806340c10f19146101da57806342966c68146101f6576100fe565b806306fdde0314610102578063095ea7b31461012057806318160ddd1461015057806323b872dd1461016e575b5f5ffd5b61010a610320565b6040516101179190610fad565b60405180910390f35b61013a6004803603810190610135919061105e565b6103b0565b60405161014791906110b6565b60405180910390f35b6101586103d2565b60405161016591906110de565b60405180910390f35b610188600480360381019061018391906110f7565b6103db565b60405161019591906110b6565b60405180910390f35b6101a6610409565b6040516101b39190611162565b60405180910390f35b6101c4610411565b6040516101d191906110de565b60405180910390f35b6101f460048036038101906101ef919061105e565b610435565b005b610210600480360381019061020b919061117b565b610505565b005b61022c600480360381019061022791906111a6565b610519565b60405161023991906110de565b60405180910390f35b61024a61055e565b005b6102666004803603810190610261919061105e565b610571565b005b610270610591565b60405161027d91906111e0565b60405180910390f35b61028e6105b9565b60405161029b9190610fad565b60405180910390f35b6102be60048036038101906102b9919061105e565b610649565b6040516102cb91906110b6565b60405180910390f35b6102ee60048036038101906102e991906111f9565b61066b565b6040516102fb91906110de565b60405180910390f35b61031e600480360381019061031991906111a6565b6106ed565b005b60606003805461032f90611264565b80601f016020809104026020016040519081016040528092919081815260200182805461035b90611264565b80156103a65780601f1061037d576101008083540402835291602001916103a6565b820191905f5260205f20905b81548152906001019060200180831161038957829003601f168201915b5050505050905090565b5f5f6103ba610771565b90506103c7818585610778565b600191505092915050565b5f600254905090565b5f5f6103e5610771565b90506103f285828561078a565b6103fd85858561081d565b60019150509392505050565b5f6006905090565b7f000000000000000000000000000000000000000000000000000000000000000081565b61043d61090d565b7f0000000000000000000000000000000000000000000000000000000000000000816104676103d2565b61047191906112c1565b11156104a9576040517fa71be60f00000000000000000000000000000000000000000000000000000000815260040160405180910390fd5b6104b38282610994565b8173ffffffffffffffffffffffffffffffffffffffff167f30385c845b448a36257a6a1716e6ad2e1bc2cbe333cde1e69fe849ad6511adfe826040516104f991906110de565b60405180910390a25050565b610516610510610771565b82610a13565b50565b5f5f5f8373ffffffffffffffffffffffffffffffffffffffff1673ffffffffffffffffffffffffffffffffffffffff1681526020019081526020015f20549050919050565b61056661090d565b61056f5f610a92565b565b6105838261057d610771565b8361078a565b61058d8282610a13565b5050565b5f60055f9054906101000a900473ffffffffffffffffffffffffffffffffffffffff16905090565b6060600480546105c890611264565b80601f01602080910402602001604051908101604052809291908181526020018280546105f490611264565b801561063f5780601f106106165761010080835404028352916020019161063f565b820191905f5260205f20905b81548152906001019060200180831161062257829003601f168201915b5050505050905090565b5f5f610653610771565b905061066081858561081d565b600191505092915050565b5f60015f8473ffffffffffffffffffffffffffffffffffffffff1673ffffffffffffffffffffffffffffffffffffffff1681526020019081526020015f205f8373ffffffffffffffffffffffffffffffffffffffff1673ffffffffffffffffffffffffffffffffffffffff1681526020019081526020015f2054905092915050565b6106f561090d565b5f73ffffffffffffffffffffffffffffffffffffffff168173ffffffffffffffffffffffffffffffffffffffff1603610765575f6040517f1e4fbdf700000000000000000000000000000000000000000000000000000000815260040161075c91906111e0565b60405180910390fd5b61076e81610a92565b50565b5f33905090565b6107858383836001610b55565b505050565b5f610795848461066b565b90507fffffffffffffffffffffffffffffffffffffffffffffffffffffffffffffffff8110156108175781811015610808578281836040517ffb8f41b20000000000000000000000000000000000000000000000000000000081526004016107ff939291906112f4565b60405180910390fd5b61081684848484035f610b55565b5b50505050565b5f73ffffffffffffffffffffffffffffffffffffffff168373ffffffffffffffffffffffffffffffffffffffff160361088d575f6040517f96c6fd1e00000000000000000000000000000000000000000000000000000000815260040161088491906111e0565b60405180910390fd5b5f73ffffffffffffffffffffffffffffffffffffffff168273ffffffffffffffffffffffffffffffffffffffff16036108fd575f6040517fec442f050000000000000000000000000000000000000000000000000000000081526004016108f491906111e0565b60405180910390fd5b610908838383610d24565b505050565b610915610771565b73ffffffffffffffffffffffffffffffffffffffff16610933610591565b73ffffffffffffffffffffffffffffffffffffffff161461099257610956610771565b6040517f118cdaa700000000000000000000000000000000000000000000000000000000815260040161098991906111e0565b60405180910390fd5b565b5f73ffffffffffffffffffffffffffffffffffffffff168273ffffffffffffffffffffffffffffffffffffffff1603610a04575f6040517fec442f050000000000000000000000000000000000000000000000000000000081526004016109fb91906111e0565b60405180910390fd5b610a0f5f8383610d24565b5050565b5f73ffffffffffffffffffffffffffffffffffffffff168273ffffffffffffffffffffffffffffffffffffffff1603610a83575f6040517f96c6fd1e000000000000000000000000000000000000000000000000000000008152600401610a7a91906111e0565b60405180910390fd5b610a8e825f83610d24565b5050565b5f60055f9054906101000a900473ffffffffffffffffffffffffffffffffffffffff1690508160055f6101000a81548173ffffffffffffffffffffffffffffffffffffffff021916908373ffffffffffffffffffffffffffffffffffffffff1602179055508173ffffffffffffffffffffffffffffffffffffffff168173ffffffffffffffffffffffffffffffffffffffff167f8be0079c531659141344cd1fd0a4f28419497f9722a3daafe3b4186f6b6457e060405160405180910390a35050565b5f73ffffffffffffffffffffffffffffffffffffffff168473ffffffffffffffffffffffffffffffffffffffff1603610bc5575f6040517fe602df05000000000000000000000000000000000000000000000000000000008152600401610bbc91906111e0565b60405180910390fd5b5f73ffffffffffffffffffffffffffffffffffffffff168373ffffffffffffffffffffffffffffffffffffffff1603610c35575f6040517f94280d62000000000000000000000000000000000000000000000000000000008152600401610c2c91906111e0565b60405180910390fd5b8160015f8673ffffffffffffffffffffffffffffffffffffffff1673ffffffffffffffffffffffffffffffffffffffff1681526020019081526020015f205f8573ffffffffffffffffffffffffffffffffffffffff1673ffffffffffffffffffffffffffffffffffffffff1681526020019081526020015f20819055508015610d1e578273ffffffffffffffffffffffffffffffffffffffff168473ffffffffffffffffffffffffffffffffffffffff167f8c5be1e5ebec7d5bd14f71427d1e84f3dd0314c0f7b2291e5b200ac8c7c3b92584604051610d1591906110de565b60405180910390a35b50505050565b5f73ffffffffffffffffffffffffffffffffffffffff168373ffffffffffffffffffffffffffffffffffffffff1603610d74578060025f828254610d6891906112c1565b92505081905550610e42565b5f5f5f8573ffffffffffffffffffffffffffffffffffffffff1673ffffffffffffffffffffffffffffffffffffffff1681526020019081526020015f2054905081811015610dfd578381836040517fe450d38c000000000000000000000000000000000000000000000000000000008152600401610df4939291906112f4565b60405180910390fd5b8181035f5f8673ffffffffffffffffffffffffffffffffffffffff1673ffffffffffffffffffffffffffffffffffffffff1681526020019081526020015f2081905550505b5f73ffffffffffffffffffffffffffffffffffffffff168273ffffffffffffffffffffffffffffffffffffffff1603610e89578060025f8282540392505081905550610ed3565b805f5f8473ffffffffffffffffffffffffffffffffffffffff1673ffffffffffffffffffffffffffffffffffffffff1681526020019081526020015f205f82825401925050819055505b8173ffffffffffffffffffffffffffffffffffffffff168373ffffffffffffffffffffffffffffffffffffffff167fddf252ad1be2c89b69c2b068fc378daa952ba7f163c4a11628f55a4df523b3ef83604051610f3091906110de565b60405180910390a3505050565b5f81519050919050565b5f82825260208201905092915050565b8281835e5f83830152505050565b5f601f19601f8301169050919050565b5f610f7f82610f3d565b610f898185610f47565b9350610f99818560208601610f57565b610fa281610f65565b840191505092915050565b5f6020820190508181035f830152610fc58184610f75565b905092915050565b5f5ffd5b5f73ffffffffffffffffffffffffffffffffffffffff82169050919050565b5f610ffa82610fd1565b9050919050565b61100a81610ff0565b8114611014575f5ffd5b50565b5f8135905061102581611001565b92915050565b5f819050919050565b61103d8161102b565b8114611047575f5ffd5b50565b5f8135905061105881611034565b92915050565b5f5f6040838503121561107457611073610fcd565b5b5f61108185828601611017565b92505060206110928582860161104a565b9150509250929050565b5f8115159050919050565b6110b08161109c565b82525050565b5f6020820190506110c95f8301846110a7565b92915050565b6110d88161102b565b82525050565b5f6020820190506110f15f8301846110cf565b92915050565b5f5f5f6060848603121561110e5761110d610fcd565b5b5f61111b86828701611017565b935050602061112c86828701611017565b925050604061113d8682870161104a565b9150509250925092565b5f60ff82169050919050565b61115c81611147565b82525050565b5f6020820190506111755f830184611153565b92915050565b5f602082840312156111905761118f610fcd565b5b5f61119d8482850161104a565b91505092915050565b5f602082840312156111bb576111ba610fcd565b5b5f6111c884828501611017565b91505092915050565b6111da81610ff0565b82525050565b5f6020820190506111f35f8301846111d1565b92915050565b5f5f6040838503121561120f5761120e610fcd565b5b5f61121c85828601611017565b925050602061122d85828601611017565b9150509250929050565b7f4e487b71000000000000000000000000000000000000000000000000000000005f52602260045260245ffd5b5f600282049050600182168061127b57607f821691505b60208210810361128e5761128d611237565b5b50919050565b7f4e487b71000000000000000000000000000000000000000000000000000000005f52601160045260245ffd5b5f6112cb8261102b565b91506112d68361102b565b92508282019050808211156112ee576112ed611294565b5b92915050565b5f6060820190506113075f8301866111d1565b61131460208301856110cf565b61132160408301846110cf565b94935050505056fea2646970667358221220041ff0d6f808eaf4bb366a3f367f0ed0e41f06e7e228555637292a0f5caebd4864736f6c63430008210033","linkReferences":{}},"methodIdentifiers":{"MAX_SUPPLY()":"32cb6b0c","allowance(address,address)":"dd62ed3e","approve(address,uint256)":"095ea7b3","balanceOf(address)":"70a08231","burn(uint256)":"42966c68","burnFrom(address,uint256)":"79cc6790","decimals()":"313ce567","mint(address,uint256)":"40c10f19","name()":"06fdde03","owner()":"8da5cb5b","renounceOwnership()":"715018a6","symbol()":"95d89b41","totalSupply()":"18160ddd","transfer(address,uint256)":"a9059cbb","transferFrom(address,address,uint256)":"23b872dd","transferOwnership(address)":"f2fde38b"},"id":28}