{"abi":[{"type":"constructor","inputs":[{"name":"_euroToken","type":"address","internalType":"address"}],"stateMutability":"nonpayable"},{"type":"function","name":"addProduct","inputs":[{"name":"name","type":"string","internalType":"string"},{"name":"description","type":"string","internalType":"string"},{"name":"price","type":"uint256","internalType":"uint256"},{"name":"stock","type":"uint256","internalType":"uint256"}],"outputs":[],"stateMutability":"nonpayable"},{"type":"function","name":"addToCart","inputs":[{"name":"productId","type":"uint256","internalType":"uint256"},{"name":"quantity","type":"uint256","internalType":"uint256"}],"outputs":[],"stateMutability":"nonpayable"},{"type":"function","name":"clearCart","inputs":[],"outputs":[],"stateMutability":"nonpayable"},{"type":"function","name":"companyCount","inputs":[],"outputs":[{"name":"","type":"uint256","internalType":"uint256"}],"stateMutability":"view"},{"type":"function","name":"createInvoice","inputs":[{"name":"companyId","type":"uint256","internalType":"uint256"}],"outputs":[{"name":"","type":"uint256","internalType":"uint256"}],"stateMutability":"nonpayable"},{"type":"function","name":"euroTokenAddress","inputs":[],"outputs":[{"name":"","type":"address","internalType":"address"}],"stateMutability":"view"},{"type":"function","name":"getCart","inputs":[{"name":"addr","type":"address","internalType":"address"}],"outputs":[{"name":"","type":"tuple[]","internalType":"struct CartLib.CartItem[]","components":[{"name":"productId","type":"uint256","internalType":"uint256"},{"name":"quantity","type":"uint256","internalType":"uint256"}]}],"stateMutability":"view"},{"type":"function","name":"getCartTotal","inputs":[{"name":"addr","type":"address","internalType":"address"}],"outputs":[{"name":"","type":"uint256","internalType":"uint256"}],"stateMutability":"view"},{"type":"function","name":"getCompanyByAddress","inputs":[{"name":"addr","type":"address","internalType":"address"}],"outputs":[{"name":"","type":"tuple","internalType":"struct CompanyLib.Company","components":[{"name":"companyAddress","type":"address","internalType":"address"},{"name":"name","type":"string","internalType":"string"},{"name":"description","type":"string","internalType":"string"},{"name":"isActive","type":"bool","internalType":"bool"},{"name":"registeredAt","type":"uint256","internalType":"uint256"}]}],"stateMutability":"view"},{"type":"function","name":"getCompanyById","inputs":[{"name":"id","type":"uint256","internalType":"uint256"}],"outputs":[{"name":"","type":"tuple","internalType":"struct CompanyLib.Company","components":[{"name":"companyAddress","type":"address","internalType":"address"},{"name":"name","type":"string","internalType":"string"},{"name":"description","type":"string","internalType":"string"},{"name":"isActive","type":"bool","internalType":"bool"},{"name":"registeredAt","type":"uint256","internalType":"uint256"}]}],"stateMutability":"view"},{"type":"function","name":"getCustomer","inputs":[{"name":"addr","type":"address","internalType":"address"}],"outputs":[{"name":"","type":"tuple","internalType":"struct CustomerLib.Customer","components":[{"name":"customerAddress","type":"address","internalType":"address"},{"name":"registeredAt","type":"uint256","internalType":"uint256"},{"name":"isActive","type":"bool","internalType":"bool"}]}],"stateMutability":"view"},{"type":"function","name":"getInvoice","inputs":[{"name":"invoiceId","type":"uint256","internalType":"uint256"}],"outputs":[{"name":"","type":"tuple","internalType":"struct InvoiceLib.Invoice","components":[{"name":"customerAddress","type":"address","internalType":"address"},{"name":"companyId","type":"uint256","internalType":"uint256"},{"name":"items","type":"tuple[]","internalType":"struct InvoiceLib.InvoiceItem[]","components":[{"name":"productId","type":"uint256","internalType":"uint256"},{"name":"quantity","type":"uint256","internalType":"uint256"},{"name":"priceAtPurchase","type":"uint256","internalType":"uint256"}]},{"name":"totalAmount","type":"uint256","internalType":"uint256"},{"name":"isPaid","type":"bool","internalType":"bool"},{"name":"createdAt","type":"uint256","internalType":"uint256"}]}],"stateMutability":"view"},{"type":"function","name":"getInvoicesByCompany","inputs":[{"name":"companyId","type":"uint256","internalType":"uint256"}],"outputs":[{"name":"","type":"uint256[]","internalType":"uint256[]"}],"stateMutability":"view"},{"type":"function","name":"getInvoicesByCustomer","inputs":[{"name":"addr","type":"address","internalType":"address"}],"outputs":[{"name":"","type":"uint256[]","internalType":"uint256[]"}],"stateMutability":"view"},{"type":"function","name":"getPayment","inputs":[{"name":"invoiceId","type":"uint256","internalType":"uint256"}],"outputs":[{"name":"","type":"tuple","internalType":"struct PaymentLib.Payment","components":[{"name":"paidBy","type":"address","internalType":"address"},{"name":"amount","type":"uint256","internalType":"uint256"},{"name":"txHash","type":"bytes32","internalType":"bytes32"},{"name":"paidAt","type":"uint256","internalType":"uint256"}]}],"stateMutability":"view"},{"type":"function","name":"getProduct","inputs":[{"name":"productId","type":"uint256","internalType":"uint256"}],"outputs":[{"name":"","type":"tuple","internalType":"struct ProductLib.Product","components":[{"name":"id","type":"uint256","internalType":"uint256"},{"name":"companyId","type":"uint256","internalType":"uint256"},{"name":"name","type":"string","internalType":"string"},{"name":"description","type":"string","internalType":"string"},{"name":"price","type":"uint256","internalType":"uint256"},{"name":"stock","type":"uint256","internalType":"uint256"},{"name":"isActive","type":"bool","internalType":"bool"}]}],"stateMutability":"view"},{"type":"function","name":"getProductsByCompany","inputs":[{"name":"companyId","type":"uint256","internalType":"uint256"}],"outputs":[{"name":"","type":"uint256[]","internalType":"uint256[]"}],"stateMutability":"view"},{"type":"function","name":"invoiceCount","inputs":[],"outputs":[{"name":"","type":"uint256","internalType":"uint256"}],"stateMutability":"view"},{"type":"function","name":"isCustomerRegistered","inputs":[{"name":"addr","type":"address","internalType":"address"}],"outputs":[{"name":"","type":"bool","internalType":"bool"}],"stateMutability":"view"},{"type":"function","name":"owner","inputs":[],"outputs":[{"name":"","type":"address","internalType":"address"}],"stateMutability":"view"},{"type":"function","name":"processPayment","inputs":[{"name":"invoiceId","type":"uint256","internalType":"uint256"}],"outputs":[],"stateMutability":"nonpayable"},{"type":"function","name":"productCount","inputs":[],"outputs":[{"name":"","type":"uint256","internalType":"uint256"}],"stateMutability":"view"},{"type":"function","name":"registerCompany","inputs":[{"name":"name","type":"string","internalType":"string"},{"name":"description","type":"string","internalType":"string"}],"outputs":[],"stateMutability":"nonpayable"},{"type":"function","name":"registerCompanyByAdmin","inputs":[{"name":"companyAddress","type":"address","internalType":"address"},{"name":"name","type":"string","internalType":"string"},{"name":"description","type":"string","internalType":"string"}],"outputs":[],"stateMutability":"nonpayable"},{"type":"function","name":"toggleCompanyStatus","inputs":[{"name":"id","type":"uint256","internalType":"uint256"}],"outputs":[],"stateMutability":"nonpayable"},{"type":"function","name":"toggleProductStatus","inputs":[{"name":"productId","type":"uint256","internalType":"uint256"}],"outputs":[],"stateMutability":"nonpayable"},{"type":"function","name":"updateCompany","inputs":[{"name":"id","type":"uint256","internalType":"uint256"},{"name":"companyAddress","type":"address","internalType":"address"},{"name":"name","type":"string","internalType":"string"},{"name":"description","type":"string","internalType":"string"}],"outputs":[],"stateMutability":"nonpayable"},{"type":"function","name":"updateProduct","inputs":[{"name":"productId","type":"uint256","internalType":"uint256"},{"name":"name","type":"string","internalType":"string"},{"name":"description","type":"string","internalType":"string"},{"name":"price","type":"uint256","internalType":"uint256"},{"name":"stock","type":"uint256","internalType":"uint256"}],"outputs":[],"stateMutability":"nonpayable"},{"type":"event","name":"CartCleared","inputs":[{"name":"customerAddress","type":"address","indexed":true,"internalType":"address"}],"anonymous":false},{"type":"event","name":"CartUpdated","inputs":[{"name":"customerAddress","type":"address","indexed":true,"internalType":"address"},{"name":"productId","type":"uint256","indexed":true,"internalType":"uint256"},{"name":"quantity","type":"uint256","indexed":false,"internalType":"uint256"}],"anonymous":false},{"type":"event","name":"CompanyActivated","inputs":[{"name":"companyId","type":"uint256","indexed":true,"internalType":"uint256"}],"anonymous":false},{"type":"event","name":"CompanyDeactivated","inputs":[{"name":"companyId","type":"uint256","indexed":true,"internalType":"uint256"}],"anonymous":false},{"type":"event","name":"CompanyRegistered","inputs":[{"name":"companyId","type":"uint256","indexed":true,"internalType":"uint256"},{"name":"companyAddress","type":"address","indexed":true,"internalType":"address"},{"name":"name","type":"string","indexed":false,"internalType":"string"}],"anonymous":false},{"type":"event","name":"CompanyUpdated","inputs":[{"name":"companyId","type":"uint256","indexed":true,"internalType":"uint256"},{"name":"name","type":"string","indexed":false,"internalType":"string"}],"anonymous":false},{"type":"event","name":"CustomerRegistered","inputs":[{"name":"customerAddress","type":"address","indexed":true,"internalType":"address"}],"anonymous":false},{"type":"event","name":"InvoiceCreated","inputs":[{"name":"invoiceId","type":"uint256","indexed":true,"internalType":"uint256"},{"name":"customerAddress","type":"address","indexed":true,"internalType":"address"},{"name":"companyId","type":"uint256","indexed":true,"internalType":"uint256"},{"name":"totalAmount","type":"uint256","indexed":false,"internalType":"uint256"}],"anonymous":false},{"type":"event","name":"PaymentProcessed","inputs":[{"name":"invoiceId","type":"uint256","indexed":true,"internalType":"uint256"},{"name":"customerAddress","type":"address","indexed":true,"internalType":"address"},{"name":"amount","type":"uint256","indexed":false,"internalType":"uint256"},{"name":"txHash","type":"bytes32","indexed":false,"internalType":"bytes32"}],"anonymous":false},{"type":"event","name":"ProductActivated","inputs":[{"name":"productId","type":"uint256","indexed":true,"internalType":"uint256"}],"anonymous":false},{"type":"event","name":"ProductAdded","inputs":[{"name":"productId","type":"uint256","indexed":true,"internalType":"uint256"},{"name":"companyId","type":"uint256","indexed":true,"internalType":"uint256"},{"name":"name","type":"string","indexed":false,"internalType":"string"},{"name":"price","type":"uint256","indexed":false,"internalType":"uint256"},{"name":"stock","type":"uint256","indexed":false,"internalType":"uint256"}],"anonymous":false},{"type":"event","name":"ProductDeactivated","inputs":[{"name":"productId","type":"uint256","indexed":true,"internalType":"uint256"}],"anonymous":false},{"type":"event","name":"ProductUpdated","inputs":[{"name":"productId","type":"uint256","indexed":true,"internalType":"uint256"},{"name":"name","type":"string","indexed":false,"internalType":"string"},{"name":"price","type":"uint256","indexed":false,"internalType":"uint256"},{"name":"stock","type":"uint256","indexed":false,"internalType":"uint256"}],"anonymous":false}],"bytecode":{"object":"0x608060405234801561000f575f5ffd5b506040516155a63803806155a683398181016040528101906100319190610182565b5f73ffffffffffffffffffffffffffffffffffffffff168173ffffffffffffffffffffffffffffffffffffffff160361009f576040517f08c379a000000000000000000000000000000000000000000000000000000000815260040161009690610207565b60405180910390fd5b335f5f6101000a81548173ffffffffffffffffffffffffffffffffffffffff021916908373ffffffffffffffffffffffffffffffffffffffff1602179055508060015f6101000a81548173ffffffffffffffffffffffffffffffffffffffff021916908373ffffffffffffffffffffffffffffffffffffffff16021790555050610225565b5f5ffd5b5f73ffffffffffffffffffffffffffffffffffffffff82169050919050565b5f61015182610128565b9050919050565b61016181610147565b811461016b575f5ffd5b50565b5f8151905061017c81610158565b92915050565b5f6020828403121561019757610196610124565b5b5f6101a48482850161016e565b91505092915050565b5f82825260208201905092915050565b7f496e76616c6964204575726f546f6b656e2061646472657373000000000000005f82015250565b5f6101f16019836101ad565b91506101fc826101bd565b602082019050919050565b5f6020820190508181035f83015261021e816101e5565b9050919050565b615374806102325f395ff3fe608060405234801561000f575f5ffd5b50600436106101c2575f3560e01c8063574fde97116100f7578063c36ae76611610095578063d95aee531161006f578063d95aee531461054c578063e0f6ef8714610568578063f117dd5b14610586578063f94eb182146105b6576101c2565b8063c36ae766146104d0578063cb949e51146104ec578063d2b88d6f1461051c576101c2565b80638da5cb5b116100d15780638da5cb5b146104345780638e75dd4714610452578063b597500314610470578063b9db15b4146104a0576101c2565b8063574fde97146103f257806374448ba4146103fc5780637cc1f62914610418576101c2565b8063205062cd116101645780633a23cc0a1161013e5780633a23cc0a1461035a5780633a2f84851461038a5780633ab9bbb6146103a657806352e33fb5146103c2576101c2565b8063205062cd146102ca5780633280a836146102fa57806334e2ad591461032a576101c2565b8063128236e9116101a0578063128236e9146102305780631346f0c4146102605780631414ef781461027e5780631fd9363f146102ae576101c2565b806301cecd14146101c657806303a30a94146101e257806305fd066a14610212575b5f5ffd5b6101e060048036038101906101db91906136cd565b6105d2565b005b6101fc60048036038101906101f79190613770565b61072c565b6040516102099190613852565b60405180910390f35b61021a610740565b60405161022791906138b1565b60405180910390f35b61024a600480360381019061024591906138f4565b610765565b6040516102579190613852565b60405180910390f35b610268610779565b604051610275919061392e565b60405180910390f35b61029860048036038101906102939190613770565b61077f565b6040516102a5919061392e565b60405180910390f35b6102c860048036038101906102c39190613770565b610992565b005b6102e460048036038101906102df9190613770565b610b2a565b6040516102f19190613852565b60405180910390f35b610314600480360381019061030f9190613770565b610b3e565b60405161032191906139c1565b60405180910390f35b610344600480360381019061033f9190613770565b610ba3565b6040516103519190613ade565b60405180910390f35b610374600480360381019061036f9190613770565b610bc0565b6040516103819190613c6c565b60405180910390f35b6103a4600480360381019061039f9190613770565b610ced565b005b6103c060048036038101906103bb9190613c8c565b610f5a565b005b6103dc60048036038101906103d791906138f4565b611018565b6040516103e99190613d9f565b60405180910390f35b6103fa61102c565b005b61041660048036038101906104119190613dbf565b61107c565b005b610432600480360381019061042d9190613e3d565b611100565b005b61043c611213565b60405161044991906138b1565b60405180910390f35b61045a611237565b604051610467919061392e565b60405180910390f35b61048a600480360381019061048591906138f4565b61123d565b6040516104979190613edd565b60405180910390f35b6104ba60048036038101906104b59190613770565b611250565b6040516104c79190613f96565b60405180910390f35b6104ea60048036038101906104e59190613770565b61126d565b005b610506600480360381019061050191906138f4565b61141c565b6040516105139190613ff6565b60405180910390f35b610536600480360381019061053191906138f4565b611436565b604051610543919061392e565b60405180910390f35b6105666004803603810190610561919061400f565b61144b565b005b61057061169a565b60405161057d919061392e565b60405180910390f35b6105a0600480360381019061059b91906138f4565b6116a0565b6040516105ad9190613ade565b60405180910390f35b6105d060048036038101906105cb91906140b2565b6116bc565b005b5f60045f3373ffffffffffffffffffffffffffffffffffffffff1673ffffffffffffffffffffffffffffffffffffffff1681526020019081526020015f205490505f8103610655576040517f08c379a000000000000000000000000000000000000000000000000000000000815260040161064c906141c3565b60405180910390fd5b60035f8281526020019081526020015f206003015f9054906101000a900460ff166106b5576040517f08c379a00000000000000000000000000000000000000000000000000000000081526004016106ac9061422b565b60405180910390fd5b60065f8154809291906106c790614276565b91905055506106e260076008600654848b8b8b8b8b8b6117ee565b806006547f9de3b6f95290270591db3e30e2fe0eece64675e93ff64318fb89404b80fc1df18989878760405161071b94939291906142f7565b60405180910390a350505050505050565b6060610739600d83611a3c565b9050919050565b60015f9054906101000a900473ffffffffffffffffffffffffffffffffffffffff1681565b6060610772600c83611aa3565b9050919050565b600a5481565b5f5f61078f600384600254611b36565b905080606001516107d5576040517f08c379a00000000000000000000000000000000000000000000000000000000081526004016107cc9061422b565b60405180910390fd5b5f6107e1600933611d48565b90505f815111610826576040517f08c379a000000000000000000000000000000000000000000000000000000000815260040161081d9061437f565b60405180910390fd5b5f5f90505b81518110156108b4578460075f84848151811061084b5761084a61439d565b5b60200260200101515f015181526020019081526020015f2060010154146108a7576040517f08c379a000000000000000000000000000000000000000000000000000000000815260040161089e90614414565b60405180910390fd5b808060010191505061082b565b50600a5f8154809291906108c790614276565b91905055505f6108e3600b600c600d6007600a54338b89611df4565b90506108f06009336120bc565b3373ffffffffffffffffffffffffffffffffffffffff167fc65a75b7a288595a934865dd0ab8eb43ac6e4f41fa21ad52cae2f31b3a68bca260405160405180910390a2843373ffffffffffffffffffffffffffffffffffffffff16600a547fcf3cabbef1a922985e239e7d4b3806775d07a76cecd7ef9311a73e709bb7536a8460405161097d919061392e565b60405180910390a4600a549350505050919050565b5f5f9054906101000a900473ffffffffffffffffffffffffffffffffffffffff1673ffffffffffffffffffffffffffffffffffffffff163373ffffffffffffffffffffffffffffffffffffffff1614610a20576040517f08c379a0000000000000000000000000000000000000000000000000000000008152600401610a179061447c565b60405180910390fd5b5f60035f8381526020019081526020015f2090505f82118015610a4557506002548211155b610a84576040517f08c379a0000000000000000000000000000000000000000000000000000000008152600401610a7b906144e4565b60405180910390fd5b806003015f9054906101000a900460ff1615816003015f6101000a81548160ff021916908315150217905550806003015f9054906101000a900460ff1615610af857817fc50b0f18fc15bc66df42c0f1356cb508f1e97d2ae53e3f7f30e1d5f78d116de960405160405180910390a2610b26565b817f5a8c2838b8a0d6051ed70e935e8a8044aa5bb9e8293798e08cb399367fb2d9a560405160405180910390a25b5050565b6060610b37600883612107565b9050919050565b610b466134b2565b5f610b52600e8461216e565b90505f816060015111610b9a576040517f08c379a0000000000000000000000000000000000000000000000000000000008152600401610b919061454c565b60405180910390fd5b80915050919050565b610bab6134ec565b610bb9600383600254611b36565b9050919050565b610bc8613530565b610bd6600b83600a5461220b565b6040518060c00160405290815f82015f9054906101000a900473ffffffffffffffffffffffffffffffffffffffff1673ffffffffffffffffffffffffffffffffffffffff1673ffffffffffffffffffffffffffffffffffffffff1681526020016001820154815260200160028201805480602002602001604051908101604052809291908181526020015f905b82821015610cb0578382905f5260205f2090600302016040518060600160405290815f82015481526020016001820154815260200160028201548152505081526020019060010190610c63565b50505050815260200160038201548152602001600482015f9054906101000a900460ff161515151581526020016005820154815250509050919050565b5f610cfc600b83600a5461220b565b90503373ffffffffffffffffffffffffffffffffffffffff16815f015f9054906101000a900473ffffffffffffffffffffffffffffffffffffffff1673ffffffffffffffffffffffffffffffffffffffff1614610d8e576040517f08c379a0000000000000000000000000000000000000000000000000000000008152600401610d85906145b4565b60405180910390fd5b806004015f9054906101000a900460ff1615610ddf576040517f08c379a0000000000000000000000000000000000000000000000000000000008152600401610dd69061461c565b60405180910390fd5b5f610df260038360010154600254611b36565b90508060600151610e38576040517f08c379a0000000000000000000000000000000000000000000000000000000008152600401610e2f9061422b565b60405180910390fd5b3373ffffffffffffffffffffffffffffffffffffffff16815f015173ffffffffffffffffffffffffffffffffffffffff1603610ea9576040517f08c379a0000000000000000000000000000000000000000000000000000000008152600401610ea090614684565b60405180910390fd5b6001826004015f6101000a81548160ff0219169083151502179055505f610efd600e60015f9054906101000a900473ffffffffffffffffffffffffffffffffffffffff168633865f01518860030154612273565b90503373ffffffffffffffffffffffffffffffffffffffff16847f38a3da2c5316d746e9cc5ec327154a07506925b807702216cbd296547f0f7a8e856003015484604051610f4c9291906146b1565b60405180910390a350505050565b5f610f6660053361245c565b90508015610fb2573373ffffffffffffffffffffffffffffffffffffffff167f155e8619f4d23b96769599cb9af87da3e06a360082869c18578011da9a06e67060405160405180910390a25b610fc460096007600654338787612596565b823373ffffffffffffffffffffffffffffffffffffffff167f5ea7c0b5bade964890a6c61b75bb90bcc69fbb7fee142ded8f46820ba7d47eee8460405161100b919061392e565b60405180910390a3505050565b6060611025600983611d48565b9050919050565b6110376009336120bc565b3373ffffffffffffffffffffffffffffffffffffffff167fc65a75b7a288595a934865dd0ab8eb43ac6e4f41fa21ad52cae2f31b3a68bca260405160405180910390a2565b60025f81548092919061108e90614276565b91905055506110a7600360046002543388888888612841565b3373ffffffffffffffffffffffffffffffffffffffff166002547fb942b64496751623fe8e67d13435346a352981ddb97189053829c967cc046df986866040516110f29291906146d8565b60405180910390a350505050565b5f5f9054906101000a900473ffffffffffffffffffffffffffffffffffffffff1673ffffffffffffffffffffffffffffffffffffffff163373ffffffffffffffffffffffffffffffffffffffff161461118e576040517f08c379a00000000000000000000000000000000000000000000000000000000081526004016111859061447c565b60405180910390fd5b60025f8154809291906111a090614276565b91905055506111b9600360046002548888888888612841565b8473ffffffffffffffffffffffffffffffffffffffff166002547fb942b64496751623fe8e67d13435346a352981ddb97189053829c967cc046df986866040516112049291906146d8565b60405180910390a35050505050565b5f5f9054906101000a900473ffffffffffffffffffffffffffffffffffffffff1681565b60025481565b5f611249600583612b2f565b9050919050565b611258613579565b611266600783600654612b7b565b9050919050565b5f60045f3373ffffffffffffffffffffffffffffffffffffffff1673ffffffffffffffffffffffffffffffffffffffff1681526020019081526020015f205490505f81036112f0576040517f08c379a00000000000000000000000000000000000000000000000000000000081526004016112e7906141c3565b60405180910390fd5b8060075f8481526020019081526020015f206001015414611346576040517f08c379a000000000000000000000000000000000000000000000000000000000815260040161133d90614744565b60405180910390fd5b60075f8381526020019081526020015f206006015f9054906101000a900460ff161560075f8481526020019081526020015f206006015f6101000a81548160ff02191690831515021790555060075f8381526020019081526020015f206006015f9054906101000a900460ff16156113ea57817fe7c62b2859afee542d7d3bafec10271d164958518351825f2b72cd6ce0b92e6360405160405180910390a2611418565b817f241c84b17626110b8c42e26f8f7de483066e7f266953509e01046f09e6fdd6cc60405160405180910390a25b5050565b6114246135b3565b61142f600583612d56565b9050919050565b5f6114446009600784612ea6565b9050919050565b5f5f9054906101000a900473ffffffffffffffffffffffffffffffffffffffff1673ffffffffffffffffffffffffffffffffffffffff163373ffffffffffffffffffffffffffffffffffffffff16146114d9576040517f08c379a00000000000000000000000000000000000000000000000000000000081526004016114d09061447c565b60405180910390fd5b5f60035f8881526020019081526020015f205f015f9054906101000a900473ffffffffffffffffffffffffffffffffffffffff1690508573ffffffffffffffffffffffffffffffffffffffff168173ffffffffffffffffffffffffffffffffffffffff1614611644575f60045f8873ffffffffffffffffffffffffffffffffffffffff1673ffffffffffffffffffffffffffffffffffffffff1681526020019081526020015f2054146115c1576040517f08c379a00000000000000000000000000000000000000000000000000000000081526004016115b8906147ac565b60405180910390fd5b60045f8273ffffffffffffffffffffffffffffffffffffffff1673ffffffffffffffffffffffffffffffffffffffff1681526020019081526020015f205f90558660045f8873ffffffffffffffffffffffffffffffffffffffff1673ffffffffffffffffffffffffffffffffffffffff1681526020019081526020015f20819055505b6116576003888888888888600254612f7c565b867fe85f99c34cb17122666c86fc080743f555f4668f976510b09f4cc7173031d90786866040516116899291906146d8565b60405180910390a250505050505050565b60065481565b6116a86134ec565b6116b5600360048461311d565b9050919050565b5f60045f3373ffffffffffffffffffffffffffffffffffffffff1673ffffffffffffffffffffffffffffffffffffffff1681526020019081526020015f205490505f810361173f576040517f08c379a0000000000000000000000000000000000000000000000000000000008152600401611736906141c3565b60405180910390fd5b8060075f8a81526020019081526020015f206001015414611795576040517f08c379a000000000000000000000000000000000000000000000000000000000815260040161178c90614744565b60405180910390fd5b6117a6600789898989898989613364565b877ff2f6cb462e8728158dbba5fcbe8181d88ca70bd5a0a5ad7f718c99ad80ba00a5888886866040516117dc94939291906142f7565b60405180910390a25050505050505050565b5f8686905011611833576040517f08c379a000000000000000000000000000000000000000000000000000000000815260040161182a90614814565b60405180910390fd5b5f8211611875576040517f08c379a000000000000000000000000000000000000000000000000000000000815260040161186c9061487c565b60405180910390fd5b60c88484905011156118bc576040517f08c379a00000000000000000000000000000000000000000000000000000000081526004016118b3906148e4565b60405180910390fd5b6040518060e0016040528089815260200188815260200187878080601f0160208091040260200160405190810160405280939291908181526020018383808284375f81840152601f19601f82011690508083019250505050505050815260200185858080601f0160208091040260200160405190810160405280939291908181526020018383808284375f81840152601f19601f820116905080830192505050505050508152602001838152602001828152602001600115158152508a5f8a81526020019081526020015f205f820151815f01556020820151816001015560408201518160020190816119af9190614b3d565b5060608201518160030190816119c59190614b3d565b506080820151816004015560a0820151816005015560c0820151816006015f6101000a81548160ff021916908315150217905550905050885f8881526020019081526020015f2088908060018154018082558091505060019003905f5260205f20015f909190919091505550505050505050505050565b6060825f8381526020019081526020015f20805480602002602001604051908101604052809291908181526020018280548015611a9657602002820191905f5260205f20905b815481526020019060010190808311611a82575b5050505050905092915050565b6060825f8373ffffffffffffffffffffffffffffffffffffffff1673ffffffffffffffffffffffffffffffffffffffff1681526020019081526020015f20805480602002602001604051908101604052809291908181526020018280548015611b2957602002820191905f5260205f20905b815481526020019060010190808311611b15575b5050505050905092915050565b611b3e6134ec565b5f83118015611b4d5750818311155b611b8c576040517f08c379a0000000000000000000000000000000000000000000000000000000008152600401611b83906144e4565b60405180910390fd5b835f8481526020019081526020015f206040518060a00160405290815f82015f9054906101000a900473ffffffffffffffffffffffffffffffffffffffff1673ffffffffffffffffffffffffffffffffffffffff1673ffffffffffffffffffffffffffffffffffffffff168152602001600182018054611c0b9061495c565b80601f0160208091040260200160405190810160405280929190818152602001828054611c379061495c565b8015611c825780601f10611c5957610100808354040283529160200191611c82565b820191905f5260205f20905b815481529060010190602001808311611c6557829003601f168201915b50505050508152602001600282018054611c9b9061495c565b80601f0160208091040260200160405190810160405280929190818152602001828054611cc79061495c565b8015611d125780601f10611ce957610100808354040283529160200191611d12565b820191905f5260205f20905b815481529060010190602001808311611cf557829003601f168201915b50505050508152602001600382015f9054906101000a900460ff1615151515815260200160048201548152505090509392505050565b6060825f8373ffffffffffffffffffffffffffffffffffffffff1673ffffffffffffffffffffffffffffffffffffffff1681526020019081526020015f20805480602002602001604051908101604052809291908181526020015f905b82821015611de8578382905f5260205f2090600202016040518060400160405290815f820154815260200160018201548152505081526020019060010190611da5565b50505050905092915050565b5f5f825111611e38576040517f08c379a0000000000000000000000000000000000000000000000000000000008152600401611e2f9061437f565b60405180910390fd5b5f895f8781526020019081526020015f20905084815f015f6101000a81548173ffffffffffffffffffffffffffffffffffffffff021916908373ffffffffffffffffffffffffffffffffffffffff1602179055508381600101819055504281600501819055505f5f90505b8351811015612011575f848281518110611ec057611ebf61439d565b5b60200260200101515f015190505f858381518110611ee157611ee061439d565b5b6020026020010151602001519050808a5f8481526020019081526020015f20600501541015611f45576040517f08c379a0000000000000000000000000000000000000000000000000000000008152600401611f3c90614c56565b60405180910390fd5b5f8a5f8481526020019081526020015f2060040154905084600201604051806060016040528085815260200184815260200183815250908060018154018082558091505060019003905f5260205f2090600302015f909190919091505f820151815f0155602082015181600101556040820151816002015550508181611fcb9190614c74565b86611fd69190614cb5565b9550818b5f8581526020019081526020015f206005015f828254611ffa9190614ce8565b925050819055505050508080600101915050611ea3565b50818160030181905550885f8673ffffffffffffffffffffffffffffffffffffffff1673ffffffffffffffffffffffffffffffffffffffff1681526020019081526020015f2086908060018154018082558091505060019003905f5260205f20015f9091909190915055875f8581526020019081526020015f2086908060018154018082558091505060019003905f5260205f20015f90919091909150555098975050505050505050565b815f8273ffffffffffffffffffffffffffffffffffffffff1673ffffffffffffffffffffffffffffffffffffffff1681526020019081526020015f205f61210391906135e9565b5050565b6060825f8381526020019081526020015f2080548060200260200160405190810160405280929190818152602001828054801561216157602002820191905f5260205f20905b81548152602001906001019080831161214d575b5050505050905092915050565b6121766134b2565b825f8381526020019081526020015f206040518060800160405290815f82015f9054906101000a900473ffffffffffffffffffffffffffffffffffffffff1673ffffffffffffffffffffffffffffffffffffffff1673ffffffffffffffffffffffffffffffffffffffff1681526020016001820154815260200160028201548152602001600382015481525050905092915050565b5f5f8311801561221b5750818311155b61225a576040517f08c379a000000000000000000000000000000000000000000000000000000000815260040161225190614d65565b60405180910390fd5b835f8481526020019081526020015f2090509392505050565b5f5f82116122b6576040517f08c379a00000000000000000000000000000000000000000000000000000000081526004016122ad90614dcd565b60405180910390fd5b5f8673ffffffffffffffffffffffffffffffffffffffff166323b872dd8686866040518463ffffffff1660e01b81526004016122f493929190614deb565b6020604051808303815f875af1158015612310573d5f5f3e3d5ffd5b505050506040513d601f19601f820116820180604052508101906123349190614e4a565b905080612376576040517f08c379a000000000000000000000000000000000000000000000000000000000815260040161236d90614ebf565b60405180910390fd5b8585844260405160200161238d9493929190614f42565b60405160208183030381529060405280519060200120915060405180608001604052808673ffffffffffffffffffffffffffffffffffffffff16815260200184815260200183815260200142815250885f8881526020019081526020015f205f820151815f015f6101000a81548173ffffffffffffffffffffffffffffffffffffffff021916908373ffffffffffffffffffffffffffffffffffffffff160217905550602082015181600101556040820151816002015560608201518160030155905050509695505050505050565b5f5f835f8473ffffffffffffffffffffffffffffffffffffffff1673ffffffffffffffffffffffffffffffffffffffff1681526020019081526020015f20600101540361258c5760405180606001604052808373ffffffffffffffffffffffffffffffffffffffff16815260200142815260200160011515815250835f8473ffffffffffffffffffffffffffffffffffffffff1673ffffffffffffffffffffffffffffffffffffffff1681526020019081526020015f205f820151815f015f6101000a81548173ffffffffffffffffffffffffffffffffffffffff021916908373ffffffffffffffffffffffffffffffffffffffff160217905550602082015181600101556040820151816002015f6101000a81548160ff02191690831515021790555090505060019050612590565b5f90505b92915050565b5f81116125d8576040517f08c379a00000000000000000000000000000000000000000000000000000000081526004016125cf90614fd9565b60405180910390fd5b5f821180156125e75750838211155b612626576040517f08c379a000000000000000000000000000000000000000000000000000000000815260040161261d90615041565b60405180910390fd5b845f8381526020019081526020015f206006015f9054906101000a900460ff16612685576040517f08c379a000000000000000000000000000000000000000000000000000000000815260040161267c906150a9565b60405180910390fd5b80855f8481526020019081526020015f206005015410156126db576040517f08c379a00000000000000000000000000000000000000000000000000000000081526004016126d290614c56565b60405180910390fd5b5f865f8573ffffffffffffffffffffffffffffffffffffffff1673ffffffffffffffffffffffffffffffffffffffff1681526020019081526020015f2090505f5f90505b818054905081101561279f578382828154811061273f5761273e61439d565b5b905f5260205f2090600202015f01540361279257828282815481106127675761276661439d565b5b905f5260205f2090600202016001015f8282546127849190614cb5565b925050819055505050612839565b808060010191505061271f565b5060148180549050106127e7576040517f08c379a00000000000000000000000000000000000000000000000000000000081526004016127de90615111565b60405180910390fd5b80604051806040016040528085815260200184815250908060018154018082558091505060019003905f5260205f2090600202015f909190919091505f820151815f0155602082015181600101555050505b505050505050565b5f73ffffffffffffffffffffffffffffffffffffffff168573ffffffffffffffffffffffffffffffffffffffff16036128af576040517f08c379a00000000000000000000000000000000000000000000000000000000081526004016128a690615179565b60405180910390fd5b5f84849050116128f4576040517f08c379a00000000000000000000000000000000000000000000000000000000081526004016128eb90614814565b60405180910390fd5b5f875f8773ffffffffffffffffffffffffffffffffffffffff1673ffffffffffffffffffffffffffffffffffffffff1681526020019081526020015f205414612972576040517f08c379a0000000000000000000000000000000000000000000000000000000008152600401612969906151e1565b60405180910390fd5b6040518060a001604052808673ffffffffffffffffffffffffffffffffffffffff16815260200185858080601f0160208091040260200160405190810160405280939291908181526020018383808284375f81840152601f19601f82011690508083019250505050505050815260200183838080601f0160208091040260200160405190810160405280939291908181526020018383808284375f81840152601f19601f82011690508083019250505050505050815260200160011515815260200142815250885f8881526020019081526020015f205f820151815f015f6101000a81548173ffffffffffffffffffffffffffffffffffffffff021916908373ffffffffffffffffffffffffffffffffffffffff1602179055506020820151816001019081612aa19190614b3d565b506040820151816002019081612ab79190614b3d565b506060820151816003015f6101000a81548160ff0219169083151502179055506080820151816004015590505085875f8773ffffffffffffffffffffffffffffffffffffffff1673ffffffffffffffffffffffffffffffffffffffff1681526020019081526020015f20819055505050505050505050565b5f5f835f8473ffffffffffffffffffffffffffffffffffffffff1673ffffffffffffffffffffffffffffffffffffffff1681526020019081526020015f20600101541415905092915050565b612b83613579565b5f83118015612b925750818311155b612bd1576040517f08c379a0000000000000000000000000000000000000000000000000000000008152600401612bc890615041565b60405180910390fd5b835f8481526020019081526020015f206040518060e00160405290815f820154815260200160018201548152602001600282018054612c0f9061495c565b80601f0160208091040260200160405190810160405280929190818152602001828054612c3b9061495c565b8015612c865780601f10612c5d57610100808354040283529160200191612c86565b820191905f5260205f20905b815481529060010190602001808311612c6957829003601f168201915b50505050508152602001600382018054612c9f9061495c565b80601f0160208091040260200160405190810160405280929190818152602001828054612ccb9061495c565b8015612d165780601f10612ced57610100808354040283529160200191612d16565b820191905f5260205f20905b815481529060010190602001808311612cf957829003601f168201915b505050505081526020016004820154815260200160058201548152602001600682015f9054906101000a900460ff16151515158152505090509392505050565b612d5e6135b3565b5f835f8473ffffffffffffffffffffffffffffffffffffffff1673ffffffffffffffffffffffffffffffffffffffff1681526020019081526020015f206001015403612ddf576040517f08c379a0000000000000000000000000000000000000000000000000000000008152600401612dd690615249565b60405180910390fd5b825f8373ffffffffffffffffffffffffffffffffffffffff1673ffffffffffffffffffffffffffffffffffffffff1681526020019081526020015f206040518060600160405290815f82015f9054906101000a900473ffffffffffffffffffffffffffffffffffffffff1673ffffffffffffffffffffffffffffffffffffffff1673ffffffffffffffffffffffffffffffffffffffff16815260200160018201548152602001600282015f9054906101000a900460ff161515151581525050905092915050565b5f5f845f8473ffffffffffffffffffffffffffffffffffffffff1673ffffffffffffffffffffffffffffffffffffffff1681526020019081526020015f2090505f5f90505b8180549050811015612f7357818181548110612f0a57612f0961439d565b5b905f5260205f20906002020160010154855f848481548110612f2f57612f2e61439d565b5b905f5260205f2090600202015f015481526020019081526020015f2060040154612f599190614c74565b83612f649190614cb5565b92508080600101915050612eeb565b50509392505050565b5f87118015612f8b5750808711155b612fca576040517f08c379a0000000000000000000000000000000000000000000000000000000008152600401612fc1906144e4565b60405180910390fd5b5f73ffffffffffffffffffffffffffffffffffffffff168673ffffffffffffffffffffffffffffffffffffffff1603613038576040517f08c379a000000000000000000000000000000000000000000000000000000000815260040161302f90615179565b60405180910390fd5b5f858590501161307d576040517f08c379a000000000000000000000000000000000000000000000000000000000815260040161307490614814565b60405180910390fd5b8484895f8a81526020019081526020015f20600101918261309f929190615271565b508282895f8a81526020019081526020015f2060020191826130c2929190615271565b5085885f8981526020019081526020015f205f015f6101000a81548173ffffffffffffffffffffffffffffffffffffffff021916908373ffffffffffffffffffffffffffffffffffffffff1602179055505050505050505050565b6131256134ec565b5f835f8473ffffffffffffffffffffffffffffffffffffffff1673ffffffffffffffffffffffffffffffffffffffff1681526020019081526020015f205490505f81036131a7576040517f08c379a000000000000000000000000000000000000000000000000000000000815260040161319e906144e4565b60405180910390fd5b845f8281526020019081526020015f206040518060a00160405290815f82015f9054906101000a900473ffffffffffffffffffffffffffffffffffffffff1673ffffffffffffffffffffffffffffffffffffffff1673ffffffffffffffffffffffffffffffffffffffff1681526020016001820180546132269061495c565b80601f01602080910402602001604051908101604052809291908181526020018280546132529061495c565b801561329d5780601f106132745761010080835404028352916020019161329d565b820191905f5260205f20905b81548152906001019060200180831161328057829003601f168201915b505050505081526020016002820180546132b69061495c565b80601f01602080910402602001604051908101604052809291908181526020018280546132e29061495c565b801561332d5780601f106133045761010080835404028352916020019161332d565b820191905f5260205f20905b81548152906001019060200180831161331057829003601f168201915b50505050508152602001600382015f9054906101000a900460ff161515151581526020016004820154815250509150509392505050565b5f86869050116133a9576040517f08c379a00000000000000000000000000000000000000000000000000000000081526004016133a090614814565b60405180910390fd5b5f82116133eb576040517f08c379a00000000000000000000000000000000000000000000000000000000081526004016133e29061487c565b60405180910390fd5b60c8848490501115613432576040517f08c379a0000000000000000000000000000000000000000000000000000000008152600401613429906148e4565b60405180910390fd5b8585895f8a81526020019081526020015f206002019182613454929190615271565b508383895f8a81526020019081526020015f206003019182613477929190615271565b5081885f8981526020019081526020015f206004018190555080885f8981526020019081526020015f20600501819055505050505050505050565b60405180608001604052805f73ffffffffffffffffffffffffffffffffffffffff1681526020015f81526020015f81526020015f81525090565b6040518060a001604052805f73ffffffffffffffffffffffffffffffffffffffff16815260200160608152602001606081526020015f151581526020015f81525090565b6040518060c001604052805f73ffffffffffffffffffffffffffffffffffffffff1681526020015f8152602001606081526020015f81526020015f151581526020015f81525090565b6040518060e001604052805f81526020015f815260200160608152602001606081526020015f81526020015f81526020015f151581525090565b60405180606001604052805f73ffffffffffffffffffffffffffffffffffffffff1681526020015f81526020015f151581525090565b5080545f8255600202905f5260205f20906136049190613607565b50565b5f5b8082111561362c578281015f5f82015f9055600182015f90555050600201613609565b505090565b5f5ffd5b5f5ffd5b5f5ffd5b5f5ffd5b5f5ffd5b5f5f83601f84011261365a57613659613639565b5b8235905067ffffffffffffffff8111156136775761367661363d565b5b60208301915083600182028301111561369357613692613641565b5b9250929050565b5f819050919050565b6136ac8161369a565b81146136b6575f5ffd5b50565b5f813590506136c7816136a3565b92915050565b5f5f5f5f5f5f608087890312156136e7576136e6613631565b5b5f87013567ffffffffffffffff81111561370457613703613635565b5b61371089828a01613645565b9650965050602087013567ffffffffffffffff81111561373357613732613635565b5b61373f89828a01613645565b9450945050604061375289828a016136b9565b925050606061376389828a016136b9565b9150509295509295509295565b5f6020828403121561378557613784613631565b5b5f613792848285016136b9565b91505092915050565b5f81519050919050565b5f82825260208201905092915050565b5f819050602082019050919050565b6137cd8161369a565b82525050565b5f6137de83836137c4565b60208301905092915050565b5f602082019050919050565b5f6138008261379b565b61380a81856137a5565b9350613815836137b5565b805f5b8381101561384557815161382c88826137d3565b9750613837836137ea565b925050600181019050613818565b5085935050505092915050565b5f6020820190508181035f83015261386a81846137f6565b905092915050565b5f73ffffffffffffffffffffffffffffffffffffffff82169050919050565b5f61389b82613872565b9050919050565b6138ab81613891565b82525050565b5f6020820190506138c45f8301846138a2565b92915050565b6138d381613891565b81146138dd575f5ffd5b50565b5f813590506138ee816138ca565b92915050565b5f6020828403121561390957613908613631565b5b5f613916848285016138e0565b91505092915050565b6139288161369a565b82525050565b5f6020820190506139415f83018461391f565b92915050565b61395081613891565b82525050565b5f819050919050565b61396881613956565b82525050565b608082015f8201516139825f850182613947565b50602082015161399560208501826137c4565b5060408201516139a8604085018261395f565b5060608201516139bb60608501826137c4565b50505050565b5f6080820190506139d45f83018461396e565b92915050565b5f81519050919050565b5f82825260208201905092915050565b8281835e5f83830152505050565b5f601f19601f8301169050919050565b5f613a1c826139da565b613a2681856139e4565b9350613a368185602086016139f4565b613a3f81613a02565b840191505092915050565b5f8115159050919050565b613a5e81613a4a565b82525050565b5f60a083015f830151613a795f860182613947565b5060208301518482036020860152613a918282613a12565b91505060408301518482036040860152613aab8282613a12565b9150506060830151613ac06060860182613a55565b506080830151613ad360808601826137c4565b508091505092915050565b5f6020820190508181035f830152613af68184613a64565b905092915050565b5f81519050919050565b5f82825260208201905092915050565b5f819050602082019050919050565b606082015f820151613b3b5f8501826137c4565b506020820151613b4e60208501826137c4565b506040820151613b6160408501826137c4565b50505050565b5f613b728383613b27565b60608301905092915050565b5f602082019050919050565b5f613b9482613afe565b613b9e8185613b08565b9350613ba983613b18565b805f5b83811015613bd9578151613bc08882613b67565b9750613bcb83613b7e565b925050600181019050613bac565b5085935050505092915050565b5f60c083015f830151613bfb5f860182613947565b506020830151613c0e60208601826137c4565b5060408301518482036040860152613c268282613b8a565b9150506060830151613c3b60608601826137c4565b506080830151613c4e6080860182613a55565b5060a0830151613c6160a08601826137c4565b508091505092915050565b5f6020820190508181035f830152613c848184613be6565b905092915050565b5f5f60408385031215613ca257613ca1613631565b5b5f613caf858286016136b9565b9250506020613cc0858286016136b9565b9150509250929050565b5f81519050919050565b5f82825260208201905092915050565b5f819050602082019050919050565b604082015f820151613d075f8501826137c4565b506020820151613d1a60208501826137c4565b50505050565b5f613d2b8383613cf3565b60408301905092915050565b5f602082019050919050565b5f613d4d82613cca565b613d578185613cd4565b9350613d6283613ce4565b805f5b83811015613d92578151613d798882613d20565b9750613d8483613d37565b925050600181019050613d65565b5085935050505092915050565b5f6020820190508181035f830152613db78184613d43565b905092915050565b5f5f5f5f60408587031215613dd757613dd6613631565b5b5f85013567ffffffffffffffff811115613df457613df3613635565b5b613e0087828801613645565b9450945050602085013567ffffffffffffffff811115613e2357613e22613635565b5b613e2f87828801613645565b925092505092959194509250565b5f5f5f5f5f60608688031215613e5657613e55613631565b5b5f613e63888289016138e0565b955050602086013567ffffffffffffffff811115613e8457613e83613635565b5b613e9088828901613645565b9450945050604086013567ffffffffffffffff811115613eb357613eb2613635565b5b613ebf88828901613645565b92509250509295509295909350565b613ed781613a4a565b82525050565b5f602082019050613ef05f830184613ece565b92915050565b5f60e083015f830151613f0b5f8601826137c4565b506020830151613f1e60208601826137c4565b5060408301518482036040860152613f368282613a12565b91505060608301518482036060860152613f508282613a12565b9150506080830151613f6560808601826137c4565b5060a0830151613f7860a08601826137c4565b5060c0830151613f8b60c0860182613a55565b508091505092915050565b5f6020820190508181035f830152613fae8184613ef6565b905092915050565b606082015f820151613fca5f850182613947565b506020820151613fdd60208501826137c4565b506040820151613ff06040850182613a55565b50505050565b5f6060820190506140095f830184613fb6565b92915050565b5f5f5f5f5f5f6080878903121561402957614028613631565b5b5f61403689828a016136b9565b965050602061404789828a016138e0565b955050604087013567ffffffffffffffff81111561406857614067613635565b5b61407489828a01613645565b9450945050606087013567ffffffffffffffff81111561409757614096613635565b5b6140a389828a01613645565b92509250509295509295509295565b5f5f5f5f5f5f5f60a0888a0312156140cd576140cc613631565b5b5f6140da8a828b016136b9565b975050602088013567ffffffffffffffff8111156140fb576140fa613635565b5b6141078a828b01613645565b9650965050604088013567ffffffffffffffff81111561412a57614129613635565b5b6141368a828b01613645565b945094505060606141498a828b016136b9565b925050608061415a8a828b016136b9565b91505092959891949750929550565b5f82825260208201905092915050565b7f4e6f742061207265676973746572656420636f6d70616e7900000000000000005f82015250565b5f6141ad601883614169565b91506141b882614179565b602082019050919050565b5f6020820190508181035f8301526141da816141a1565b9050919050565b7f436f6d70616e79206e6f742061637469766500000000000000000000000000005f82015250565b5f614215601283614169565b9150614220826141e1565b602082019050919050565b5f6020820190508181035f83015261424281614209565b9050919050565b7f4e487b71000000000000000000000000000000000000000000000000000000005f52601160045260245ffd5b5f6142808261369a565b91507fffffffffffffffffffffffffffffffffffffffffffffffffffffffffffffffff82036142b2576142b1614249565b5b600182019050919050565b828183375f83830152505050565b5f6142d68385614169565b93506142e38385846142bd565b6142ec83613a02565b840190509392505050565b5f6060820190508181035f8301526143108186886142cb565b905061431f602083018561391f565b61432c604083018461391f565b95945050505050565b7f4361727420697320656d707479000000000000000000000000000000000000005f82015250565b5f614369600d83614169565b915061437482614335565b602082019050919050565b5f6020820190508181035f8301526143968161435d565b9050919050565b7f4e487b71000000000000000000000000000000000000000000000000000000005f52603260045260245ffd5b7f50726f6475637420636f6d70616e79206d69736d6174636800000000000000005f82015250565b5f6143fe601883614169565b9150614409826143ca565b602082019050919050565b5f6020820190508181035f83015261442b816143f2565b9050919050565b7f4e6f74206f776e657200000000000000000000000000000000000000000000005f82015250565b5f614466600983614169565b915061447182614432565b602082019050919050565b5f6020820190508181035f8301526144938161445a565b9050919050565b7f436f6d70616e79206e6f7420666f756e640000000000000000000000000000005f82015250565b5f6144ce601183614169565b91506144d98261449a565b602082019050919050565b5f6020820190508181035f8301526144fb816144c2565b9050919050565b7f5061796d656e74206e6f7420666f756e640000000000000000000000000000005f82015250565b5f614536601183614169565b915061454182614502565b602082019050919050565b5f6020820190508181035f8301526145638161452a565b9050919050565b7f4e6f7420796f757220696e766f696365000000000000000000000000000000005f82015250565b5f61459e601083614169565b91506145a98261456a565b602082019050919050565b5f6020820190508181035f8301526145cb81614592565b9050919050565b7f416c7265616479207061696400000000000000000000000000000000000000005f82015250565b5f614606600c83614169565b9150614611826145d2565b602082019050919050565b5f6020820190508181035f830152614633816145fa565b9050919050565b7f43616e6e6f742070617920796f7572206f776e20636f6d70616e7900000000005f82015250565b5f61466e601b83614169565b91506146798261463a565b602082019050919050565b5f6020820190508181035f83015261469b81614662565b9050919050565b6146ab81613956565b82525050565b5f6040820190506146c45f83018561391f565b6146d160208301846146a2565b9392505050565b5f6020820190508181035f8301526146f18184866142cb565b90509392505050565b7f4e6f7420796f75722070726f64756374000000000000000000000000000000005f82015250565b5f61472e601083614169565b9150614739826146fa565b602082019050919050565b5f6020820190508181035f83015261475b81614722565b9050919050565b7f4164647265737320616c726561647920726567697374657265640000000000005f82015250565b5f614796601a83614169565b91506147a182614762565b602082019050919050565b5f6020820190508181035f8301526147c38161478a565b9050919050565b7f4e616d65207265717569726564000000000000000000000000000000000000005f82015250565b5f6147fe600d83614169565b9150614809826147ca565b602082019050919050565b5f6020820190508181035f83015261482b816147f2565b9050919050565b7f5072696365206d757374206265203e20300000000000000000000000000000005f82015250565b5f614866601183614169565b915061487182614832565b602082019050919050565b5f6020820190508181035f8301526148938161485a565b9050919050565b7f4465736372697074696f6e20746f6f206c6f6e670000000000000000000000005f82015250565b5f6148ce601483614169565b91506148d98261489a565b602082019050919050565b5f6020820190508181035f8301526148fb816148c2565b9050919050565b7f4e487b71000000000000000000000000000000000000000000000000000000005f52604160045260245ffd5b7f4e487b71000000000000000000000000000000000000000000000000000000005f52602260045260245ffd5b5f600282049050600182168061497357607f821691505b6020821081036149865761498561492f565b5b50919050565b5f819050815f5260205f209050919050565b5f6020601f8301049050919050565b5f82821b905092915050565b5f600883026149e87fffffffffffffffffffffffffffffffffffffffffffffffffffffffffffffffff826149ad565b6149f286836149ad565b95508019841693508086168417925050509392505050565b5f819050919050565b5f614a2d614a28614a238461369a565b614a0a565b61369a565b9050919050565b5f819050919050565b614a4683614a13565b614a5a614a5282614a34565b8484546149b9565b825550505050565b5f5f905090565b614a71614a62565b614a7c818484614a3d565b505050565b5f5b82811015614aa257614a975f828401614a69565b600181019050614a83565b505050565b601f821115614af55782821115614af457614ac18161498c565b614aca8361499e565b614ad38561499e565b6020861015614ae0575f90505b808301614aef82840382614a81565b505050505b5b505050565b5f82821c905092915050565b5f614b155f1984600802614afa565b1980831691505092915050565b5f614b2d8383614b06565b9150826002028217905092915050565b614b46826139da565b67ffffffffffffffff811115614b5f57614b5e614902565b5b614b69825461495c565b614b74828285614aa7565b5f60209050601f831160018114614ba5575f8415614b93578287015190505b614b9d8582614b22565b865550614c04565b601f198416614bb38661498c565b5f5b82811015614bda57848901518255600182019150602085019450602081019050614bb5565b86831015614bf75784890151614bf3601f891682614b06565b8355505b6001600288020188555050505b505050505050565b7f496e73756666696369656e742073746f636b00000000000000000000000000005f82015250565b5f614c40601283614169565b9150614c4b82614c0c565b602082019050919050565b5f6020820190508181035f830152614c6d81614c34565b9050919050565b5f614c7e8261369a565b9150614c898361369a565b9250828202614c978161369a565b91508282048414831517614cae57614cad614249565b5b5092915050565b5f614cbf8261369a565b9150614cca8361369a565b9250828201905080821115614ce257614ce1614249565b5b92915050565b5f614cf28261369a565b9150614cfd8361369a565b9250828203905081811115614d1557614d14614249565b5b92915050565b7f496e766f696365206e6f7420666f756e640000000000000000000000000000005f82015250565b5f614d4f601183614169565b9150614d5a82614d1b565b602082019050919050565b5f6020820190508181035f830152614d7c81614d43565b9050919050565b7f416d6f756e74206d757374206265203e203000000000000000000000000000005f82015250565b5f614db7601283614169565b9150614dc282614d83565b602082019050919050565b5f6020820190508181035f830152614de481614dab565b9050919050565b5f606082019050614dfe5f8301866138a2565b614e0b60208301856138a2565b614e18604083018461391f565b949350505050565b614e2981613a4a565b8114614e33575f5ffd5b50565b5f81519050614e4481614e20565b92915050565b5f60208284031215614e5f57614e5e613631565b5b5f614e6c84828501614e36565b91505092915050565b7f5472616e73666572206661696c656400000000000000000000000000000000005f82015250565b5f614ea9600f83614169565b9150614eb482614e75565b602082019050919050565b5f6020820190508181035f830152614ed681614e9d565b9050919050565b5f819050919050565b614ef7614ef28261369a565b614edd565b82525050565b5f8160601b9050919050565b5f614f1382614efd565b9050919050565b5f614f2482614f09565b9050919050565b614f3c614f3782613891565b614f1a565b82525050565b5f614f4d8287614ee6565b602082019150614f5d8286614f2b565b601482019150614f6d8285614ee6565b602082019150614f7d8284614ee6565b60208201915081905095945050505050565b7f5175616e74697479206d757374206265203e20300000000000000000000000005f82015250565b5f614fc3601483614169565b9150614fce82614f8f565b602082019050919050565b5f6020820190508181035f830152614ff081614fb7565b9050919050565b7f50726f64756374206e6f7420666f756e640000000000000000000000000000005f82015250565b5f61502b601183614169565b915061503682614ff7565b602082019050919050565b5f6020820190508181035f8301526150588161501f565b9050919050565b7f50726f64756374206e6f742061637469766500000000000000000000000000005f82015250565b5f615093601283614169565b915061509e8261505f565b602082019050919050565b5f6020820190508181035f8301526150c081615087565b9050919050565b7f436172742069732066756c6c00000000000000000000000000000000000000005f82015250565b5f6150fb600c83614169565b9150615106826150c7565b602082019050919050565b5f6020820190508181035f830152615128816150ef565b9050919050565b7f496e76616c6964206164647265737300000000000000000000000000000000005f82015250565b5f615163600f83614169565b915061516e8261512f565b602082019050919050565b5f6020820190508181035f83015261519081615157565b9050919050565b7f416c7265616479207265676973746572656400000000000000000000000000005f82015250565b5f6151cb601283614169565b91506151d682615197565b602082019050919050565b5f6020820190508181035f8301526151f8816151bf565b9050919050565b7f437573746f6d6572206e6f7420666f756e6400000000000000000000000000005f82015250565b5f615233601283614169565b915061523e826151ff565b602082019050919050565b5f6020820190508181035f83015261526081615227565b9050919050565b5f82905092915050565b61527b8383615267565b67ffffffffffffffff81111561529457615293614902565b5b61529e825461495c565b6152a9828285614aa7565b5f601f8311600181146152d6575f84156152c4578287013590505b6152ce8582614b22565b865550615335565b601f1984166152e48661498c565b5f5b8281101561530b578489013582556001820191506020850194506020810190506152e6565b868310156153285784890135615324601f891682614b06565b8355505b6001600288020188555050505b5050505050505056fea26469706673582212203102ad015b76e036d0d561006e51ab140525be164e4c5ecbba7bcbfb4053873464736f6c63430008210033","linkReferences":{}},"methodIdentifiers":{"addProduct(string,string,uint256,uint256)":"01cecd14","addToCart(uint256,uint256)":"3ab9bbb6","clearCart()":"574fde97","companyCount()":"8e75dd47","createInvoice(uint256)":"1414ef78","euroTokenAddress()":"05fd066a","getCart(address)":"52e33fb5","getCartTotal(address)":"d2b88d6f","getCompanyByAddress(address)":"f117dd5b","getCompanyById(uint256)":"34e2ad59","getCustomer(address)":"cb949e51","getInvoice(uint256)":"3a23cc0a","getInvoicesByCompany(uint256)":"03a30a94","getInvoicesByCustomer(address)":"128236e9","getPayment(uint256)":"3280a836","getProduct(uint256)":"b9db15b4","getProductsByCompany(uint256)":"205062cd","invoiceCount()":"1346f0c4","isCustomerRegistered(address)":"b5975003","owner()":"8da5cb5b","processPayment(uint256)":"3a2f8485","productCount()":"e0f6ef87","registerCompany(string,string)":"74448ba4","registerCompanyByAdmin(address,string,string)":"7cc1f629","toggleCompanyStatus(uint256)":"1fd9363f","toggleProductStatus(uint256)":"c36ae766","updateCompany(uint256,address,string,string)":"d95aee53","updateProduct(uint256,string,string,uint256,uint256)":"f94eb182"},"id":22}