{"abi":[{"type":"constructor","inputs":[{"name":"_euroToken","type":"address","internalType":"address"}],"stateMutability":"nonpayable"},{"type":"function","name":"activateCompany","inputs":[{"name":"id","type":"uint256","internalType":"uint256"}],"outputs":[],"stateMutability":"nonpayable"},{"type":"function","name":"activateProduct","inputs":[{"name":"productId","type":"uint256","internalType":"uint256"}],"outputs":[],"stateMutability":"nonpayable"},{"type":"function","name":"addProduct","inputs":[{"name":"name","type":"string","internalType":"string"},{"name":"price","type":"uint256","internalType":"uint256"},{"name":"stock","type":"uint256","internalType":"uint256"}],"outputs":[],"stateMutability":"nonpayable"},{"type":"function","name":"addToCart","inputs":[{"name":"productId","type":"uint256","internalType":"uint256"},{"name":"quantity","type":"uint256","internalType":"uint256"}],"outputs":[],"stateMutability":"nonpayable"},{"type":"function","name":"clearCart","inputs":[],"outputs":[],"stateMutability":"nonpayable"},{"type":"function","name":"companyCount","inputs":[],"outputs":[{"name":"","type":"uint256","internalType":"uint256"}],"stateMutability":"view"},{"type":"function","name":"createInvoice","inputs":[{"name":"companyId","type":"uint256","internalType":"uint256"}],"outputs":[{"name":"","type":"uint256","internalType":"uint256"}],"stateMutability":"nonpayable"},{"type":"function","name":"deactivateCompany","inputs":[{"name":"id","type":"uint256","internalType":"uint256"}],"outputs":[],"stateMutability":"nonpayable"},{"type":"function","name":"deactivateProduct","inputs":[{"name":"productId","type":"uint256","internalType":"uint256"}],"outputs":[],"stateMutability":"nonpayable"},{"type":"function","name":"euroTokenAddress","inputs":[],"outputs":[{"name":"","type":"address","internalType":"address"}],"stateMutability":"view"},{"type":"function","name":"getCart","inputs":[{"name":"addr","type":"address","internalType":"address"}],"outputs":[{"name":"","type":"tuple[]","internalType":"struct CartLib.CartItem[]","components":[{"name":"productId","type":"uint256","internalType":"uint256"},{"name":"quantity","type":"uint256","internalType":"uint256"}]}],"stateMutability":"view"},{"type":"function","name":"getCartTotal","inputs":[{"name":"addr","type":"address","internalType":"address"}],"outputs":[{"name":"","type":"uint256","internalType":"uint256"}],"stateMutability":"view"},{"type":"function","name":"getCompanyByAddress","inputs":[{"name":"addr","type":"address","internalType":"address"}],"outputs":[{"name":"","type":"tuple","internalType":"struct CompanyLib.Company","components":[{"name":"companyAddress","type":"address","internalType":"address"},{"name":"name","type":"string","internalType":"string"},{"name":"isActive","type":"bool","internalType":"bool"},{"name":"registeredAt","type":"uint256","internalType":"uint256"}]}],"stateMutability":"view"},{"type":"function","name":"getCompanyById","inputs":[{"name":"id","type":"uint256","internalType":"uint256"}],"outputs":[{"name":"","type":"tuple","internalType":"struct CompanyLib.Company","components":[{"name":"companyAddress","type":"address","internalType":"address"},{"name":"name","type":"string","internalType":"string"},{"name":"isActive","type":"bool","internalType":"bool"},{"name":"registeredAt","type":"uint256","internalType":"uint256"}]}],"stateMutability":"view"},{"type":"function","name":"getCustomer","inputs":[{"name":"addr","type":"address","internalType":"address"}],"outputs":[{"name":"","type":"tuple","internalType":"struct CustomerLib.Customer","components":[{"name":"customerAddress","type":"address","internalType":"address"},{"name":"registeredAt","type":"uint256","internalType":"uint256"},{"name":"isActive","type":"bool","internalType":"bool"}]}],"stateMutability":"view"},{"type":"function","name":"getInvoice","inputs":[{"name":"invoiceId","type":"uint256","internalType":"uint256"}],"outputs":[{"name":"","type":"tuple","internalType":"struct InvoiceLib.Invoice","components":[{"name":"customerAddress","type":"address","internalType":"address"},{"name":"companyId","type":"uint256","internalType":"uint256"},{"name":"items","type":"tuple[]","internalType":"struct InvoiceLib.InvoiceItem[]","components":[{"name":"productId","type":"uint256","internalType":"uint256"},{"name":"quantity","type":"uint256","internalType":"uint256"},{"name":"priceAtPurchase","type":"uint256","internalType":"uint256"}]},{"name":"totalAmount","type":"uint256","internalType":"uint256"},{"name":"isPaid","type":"bool","internalType":"bool"},{"name":"createdAt","type":"uint256","internalType":"uint256"}]}],"stateMutability":"view"},{"type":"function","name":"getInvoicesByCompany","inputs":[{"name":"companyId","type":"uint256","internalType":"uint256"}],"outputs":[{"name":"","type":"uint256[]","internalType":"uint256[]"}],"stateMutability":"view"},{"type":"function","name":"getInvoicesByCustomer","inputs":[{"name":"addr","type":"address","internalType":"address"}],"outputs":[{"name":"","type":"uint256[]","internalType":"uint256[]"}],"stateMutability":"view"},{"type":"function","name":"getPayment","inputs":[{"name":"invoiceId","type":"uint256","internalType":"uint256"}],"outputs":[{"name":"","type":"tuple","internalType":"struct PaymentLib.Payment","components":[{"name":"paidBy","type":"address","internalType":"address"},{"name":"amount","type":"uint256","internalType":"uint256"},{"name":"txHash","type":"bytes32","internalType":"bytes32"},{"name":"paidAt","type":"uint256","internalType":"uint256"}]}],"stateMutability":"view"},{"type":"function","name":"getProduct","inputs":[{"name":"productId","type":"uint256","internalType":"uint256"}],"outputs":[{"name":"","type":"tuple","internalType":"struct ProductLib.Product","components":[{"name":"id","type":"uint256","internalType":"uint256"},{"name":"companyId","type":"uint256","internalType":"uint256"},{"name":"name","type":"string","internalType":"string"},{"name":"price","type":"uint256","internalType":"uint256"},{"name":"stock","type":"uint256","internalType":"uint256"},{"name":"isActive","type":"bool","internalType":"bool"}]}],"stateMutability":"view"},{"type":"function","name":"getProductsByCompany","inputs":[{"name":"companyId","type":"uint256","internalType":"uint256"}],"outputs":[{"name":"","type":"uint256[]","internalType":"uint256[]"}],"stateMutability":"view"},{"type":"function","name":"invoiceCount","inputs":[],"outputs":[{"name":"","type":"uint256","internalType":"uint256"}],"stateMutability":"view"},{"type":"function","name":"isCustomerRegistered","inputs":[{"name":"addr","type":"address","internalType":"address"}],"outputs":[{"name":"","type":"bool","internalType":"bool"}],"stateMutability":"view"},{"type":"function","name":"owner","inputs":[],"outputs":[{"name":"","type":"address","internalType":"address"}],"stateMutability":"view"},{"type":"function","name":"processPayment","inputs":[{"name":"invoiceId","type":"uint256","internalType":"uint256"}],"outputs":[],"stateMutability":"nonpayable"},{"type":"function","name":"productCount","inputs":[],"outputs":[{"name":"","type":"uint256","internalType":"uint256"}],"stateMutability":"view"},{"type":"function","name":"registerCompany","inputs":[{"name":"name","type":"string","internalType":"string"}],"outputs":[],"stateMutability":"nonpayable"},{"type":"function","name":"updateProduct","inputs":[{"name":"productId","type":"uint256","internalType":"uint256"},{"name":"name","type":"string","internalType":"string"},{"name":"price","type":"uint256","internalType":"uint256"},{"name":"stock","type":"uint256","internalType":"uint256"}],"outputs":[],"stateMutability":"nonpayable"},{"type":"event","name":"CartCleared","inputs":[{"name":"customerAddress","type":"address","indexed":true,"internalType":"address"}],"anonymous":false},{"type":"event","name":"CartUpdated","inputs":[{"name":"customerAddress","type":"address","indexed":true,"internalType":"address"},{"name":"productId","type":"uint256","indexed":true,"internalType":"uint256"},{"name":"quantity","type":"uint256","indexed":false,"internalType":"uint256"}],"anonymous":false},{"type":"event","name":"CompanyActivated","inputs":[{"name":"companyId","type":"uint256","indexed":true,"internalType":"uint256"}],"anonymous":false},{"type":"event","name":"CompanyDeactivated","inputs":[{"name":"companyId","type":"uint256","indexed":true,"internalType":"uint256"}],"anonymous":false},{"type":"event","name":"CompanyRegistered","inputs":[{"name":"companyId","type":"uint256","indexed":true,"internalType":"uint256"},{"name":"companyAddress","type":"address","indexed":true,"internalType":"address"},{"name":"name","type":"string","indexed":false,"internalType":"string"}],"anonymous":false},{"type":"event","name":"CustomerRegistered","inputs":[{"name":"customerAddress","type":"address","indexed":true,"internalType":"address"}],"anonymous":false},{"type":"event","name":"InvoiceCreated","inputs":[{"name":"invoiceId","type":"uint256","indexed":true,"internalType":"uint256"},{"name":"customerAddress","type":"address","indexed":true,"internalType":"address"},{"name":"companyId","type":"uint256","indexed":true,"internalType":"uint256"},{"name":"totalAmount","type":"uint256","indexed":false,"internalType":"uint256"}],"anonymous":false},{"type":"event","name":"PaymentProcessed","inputs":[{"name":"invoiceId","type":"uint256","indexed":true,"internalType":"uint256"},{"name":"customerAddress","type":"address","indexed":true,"internalType":"address"},{"name":"amount","type":"uint256","indexed":false,"internalType":"uint256"},{"name":"txHash","type":"bytes32","indexed":false,"internalType":"bytes32"}],"anonymous":false},{"type":"event","name":"ProductActivated","inputs":[{"name":"productId","type":"uint256","indexed":true,"internalType":"uint256"}],"anonymous":false},{"type":"event","name":"ProductAdded","inputs":[{"name":"productId","type":"uint256","indexed":true,"internalType":"uint256"},{"name":"companyId","type":"uint256","indexed":true,"internalType":"uint256"},{"name":"name","type":"string","indexed":false,"internalType":"string"},{"name":"price","type":"uint256","indexed":false,"internalType":"uint256"},{"name":"stock","type":"uint256","indexed":false,"internalType":"uint256"}],"anonymous":false},{"type":"event","name":"ProductDeactivated","inputs":[{"name":"productId","type":"uint256","indexed":true,"internalType":"uint256"}],"anonymous":false},{"type":"event","name":"ProductUpdated","inputs":[{"name":"productId","type":"uint256","indexed":true,"internalType":"uint256"},{"name":"name","type":"string","indexed":false,"internalType":"string"},{"name":"price","type":"uint256","indexed":false,"internalType":"uint256"},{"name":"stock","type":"uint256","indexed":false,"internalType":"uint256"}],"anonymous":false}],"bytecode":{"object":"0x608060405234801561000f575f5ffd5b50604051614b49380380614b4983398181016040528101906100319190610182565b5f73ffffffffffffffffffffffffffffffffffffffff168173ffffffffffffffffffffffffffffffffffffffff160361009f576040517f08c379a000000000000000000000000000000000000000000000000000000000815260040161009690610207565b60405180910390fd5b335f5f6101000a81548173ffffffffffffffffffffffffffffffffffffffff021916908373ffffffffffffffffffffffffffffffffffffffff1602179055508060015f6101000a81548173ffffffffffffffffffffffffffffffffffffffff021916908373ffffffffffffffffffffffffffffffffffffffff16021790555050610225565b5f5ffd5b5f73ffffffffffffffffffffffffffffffffffffffff82169050919050565b5f61015182610128565b9050919050565b61016181610147565b811461016b575f5ffd5b50565b5f8151905061017c81610158565b92915050565b5f6020828403121561019757610196610124565b5b5f6101a48482850161016e565b91505092915050565b5f82825260208201905092915050565b7f496e76616c6964204575726f546f6b656e2061646472657373000000000000005f82015250565b5f6101f16019836101ad565b91506101fc826101bd565b602082019050919050565b5f6020820190508181035f83015261021e816101e5565b9050919050565b614917806102325f395ff3fe608060405234801561000f575f5ffd5b50600436106101c1575f3560e01c80633a2f8485116100f7578063b9db15b411610095578063d2b88d6f1161006f578063d2b88d6f14610537578063e0f6ef8714610567578063f117dd5b14610585578063fd77e5de146105b5576101c1565b8063b9db15b4146104bb578063ba9b3613146104eb578063cb949e5114610507576101c1565b8063574fde97116100d1578063574fde97146104455780638da5cb5b1461044f5780638e75dd471461046d578063b59750031461048b576101c1565b80633a2f8485146103dd5780633ab9bbb6146103f957806352e33fb514610415576101c1565b80631f2c55b0116101645780633280a8361161013e5780633280a8361461033157806332f662f61461036157806334e2ad591461037d5780633a23cc0a146103ad576101c1565b80631f2c55b0146102c9578063205062cd146102e55780632d56178714610315576101c1565b8063125b0b34116101a0578063125b0b341461022f578063128236e91461024b5780631346f0c41461027b5780631414ef7814610299576101c1565b8062544194146101c557806303a30a94146101e157806305fd066a14610211575b5f5ffd5b6101df60048036038101906101da9190612f75565b6105d1565b005b6101fb60048036038101906101f69190612ff3565b610651565b60405161020891906130d5565b60405180910390f35b610219610665565b6040516102269190613134565b60405180910390f35b6102496004803603810190610244919061314d565b61068a565b005b610265600480360381019061026091906131e8565b6107e0565b60405161027291906130d5565b60405180910390f35b6102836107f4565b6040516102909190613222565b60405180910390f35b6102b360048036038101906102ae9190612ff3565b6107fa565b6040516102c09190613222565b60405180910390f35b6102e360048036038101906102de9190612ff3565b610a0d565b005b6102ff60048036038101906102fa9190612ff3565b610ad9565b60405161030c91906130d5565b60405180910390f35b61032f600480360381019061032a919061323b565b610aed565b005b61034b60048036038101906103469190612ff3565b610c1b565b6040516103589190613339565b60405180910390f35b61037b60048036038101906103769190612ff3565b610c80565b005b61039760048036038101906103929190612ff3565b610d95565b6040516103a4919061343c565b60405180910390f35b6103c760048036038101906103c29190612ff3565b610db2565b6040516103d491906135ca565b60405180910390f35b6103f760048036038101906103f29190612ff3565b610edf565b005b610413600480360381019061040e91906135ea565b611097565b005b61042f600480360381019061042a91906131e8565b611155565b60405161043c91906136fd565b60405180910390f35b61044d611169565b005b6104576111b9565b6040516104649190613134565b60405180910390f35b6104756111dd565b6040516104829190613222565b60405180910390f35b6104a560048036038101906104a091906131e8565b6111e3565b6040516104b2919061372c565b60405180910390f35b6104d560048036038101906104d09190612ff3565b6111f6565b6040516104e291906137cb565b60405180910390f35b61050560048036038101906105009190612ff3565b611213565b005b610521600480360381019061051c91906131e8565b6112df565b60405161052e919061382b565b60405180910390f35b610551600480360381019061054c91906131e8565b6112f9565b60405161055e9190613222565b60405180910390f35b61056f61130e565b60405161057c9190613222565b60405180910390f35b61059f600480360381019061059a91906131e8565b611314565b6040516105ac919061343c565b60405180910390f35b6105cf60048036038101906105ca9190612ff3565b611330565b005b60025f8154809291906105e390613871565b91905055506105fa60036004600254338686611445565b3373ffffffffffffffffffffffffffffffffffffffff166002547fb942b64496751623fe8e67d13435346a352981ddb97189053829c967cc046df98484604051610645929190613902565b60405180910390a35050565b606061065e600d836116d2565b9050919050565b60015f9054906101000a900473ffffffffffffffffffffffffffffffffffffffff1681565b5f60045f3373ffffffffffffffffffffffffffffffffffffffff1673ffffffffffffffffffffffffffffffffffffffff1681526020019081526020015f205490505f810361070d576040517f08c379a00000000000000000000000000000000000000000000000000000000081526004016107049061396e565b60405180910390fd5b60035f8281526020019081526020015f206002015f9054906101000a900460ff1661076d576040517f08c379a0000000000000000000000000000000000000000000000000000000008152600401610764906139d6565b60405180910390fd5b60065f81548092919061077f90613871565b9190505550610798600760086006548489898989611739565b806006547f9de3b6f95290270591db3e30e2fe0eece64675e93ff64318fb89404b80fc1df1878787876040516107d194939291906139f4565b60405180910390a35050505050565b60606107ed600c836118df565b9050919050565b600a5481565b5f5f61080a600384600254611972565b90508060400151610850576040517f08c379a0000000000000000000000000000000000000000000000000000000008152600401610847906139d6565b60405180910390fd5b5f61085c600933611af4565b90505f8151116108a1576040517f08c379a000000000000000000000000000000000000000000000000000000000815260040161089890613a7c565b60405180910390fd5b5f5f90505b815181101561092f578460075f8484815181106108c6576108c5613a9a565b5b60200260200101515f015181526020019081526020015f206001015414610922576040517f08c379a000000000000000000000000000000000000000000000000000000000815260040161091990613b11565b60405180910390fd5b80806001019150506108a6565b50600a5f81548092919061094290613871565b91905055505f61095e600b600c600d6007600a54338b89611ba0565b905061096b600933611e68565b3373ffffffffffffffffffffffffffffffffffffffff167fc65a75b7a288595a934865dd0ab8eb43ac6e4f41fa21ad52cae2f31b3a68bca260405160405180910390a2843373ffffffffffffffffffffffffffffffffffffffff16600a547fcf3cabbef1a922985e239e7d4b3806775d07a76cecd7ef9311a73e709bb7536a846040516109f89190613222565b60405180910390a4600a549350505050919050565b5f5f9054906101000a900473ffffffffffffffffffffffffffffffffffffffff1673ffffffffffffffffffffffffffffffffffffffff163373ffffffffffffffffffffffffffffffffffffffff1614610a9b576040517f08c379a0000000000000000000000000000000000000000000000000000000008152600401610a9290613b79565b60405180910390fd5b610aa9600382600254611eb3565b807fc50b0f18fc15bc66df42c0f1356cb508f1e97d2ae53e3f7f30e1d5f78d116de960405160405180910390a250565b6060610ae6600883611f31565b9050919050565b5f60045f3373ffffffffffffffffffffffffffffffffffffffff1673ffffffffffffffffffffffffffffffffffffffff1681526020019081526020015f205490505f8103610b70576040517f08c379a0000000000000000000000000000000000000000000000000000000008152600401610b679061396e565b60405180910390fd5b8060075f8881526020019081526020015f206001015414610bc6576040517f08c379a0000000000000000000000000000000000000000000000000000000008152600401610bbd90613be1565b60405180910390fd5b610bd560078787878787611f98565b857ff2f6cb462e8728158dbba5fcbe8181d88ca70bd5a0a5ad7f718c99ad80ba00a586868686604051610c0b94939291906139f4565b60405180910390a2505050505050565b610c23612d9b565b5f610c2f600e8461207a565b90505f816060015111610c77576040517f08c379a0000000000000000000000000000000000000000000000000000000008152600401610c6e90613c49565b60405180910390fd5b80915050919050565b5f60045f3373ffffffffffffffffffffffffffffffffffffffff1673ffffffffffffffffffffffffffffffffffffffff1681526020019081526020015f205490505f8103610d03576040517f08c379a0000000000000000000000000000000000000000000000000000000008152600401610cfa9061396e565b60405180910390fd5b8060075f8481526020019081526020015f206001015414610d59576040517f08c379a0000000000000000000000000000000000000000000000000000000008152600401610d5090613be1565b60405180910390fd5b610d64600783612117565b817fe7c62b2859afee542d7d3bafec10271d164958518351825f2b72cd6ce0b92e6360405160405180910390a25050565b610d9d612dd5565b610dab600383600254611972565b9050919050565b610dba612e12565b610dc8600b83600a54612146565b6040518060c00160405290815f82015f9054906101000a900473ffffffffffffffffffffffffffffffffffffffff1673ffffffffffffffffffffffffffffffffffffffff1673ffffffffffffffffffffffffffffffffffffffff1681526020016001820154815260200160028201805480602002602001604051908101604052809291908181526020015f905b82821015610ea2578382905f5260205f2090600302016040518060600160405290815f82015481526020016001820154815260200160028201548152505081526020019060010190610e55565b50505050815260200160038201548152602001600482015f9054906101000a900460ff161515151581526020016005820154815250509050919050565b5f610eee600b83600a54612146565b90503373ffffffffffffffffffffffffffffffffffffffff16815f015f9054906101000a900473ffffffffffffffffffffffffffffffffffffffff1673ffffffffffffffffffffffffffffffffffffffff1614610f80576040517f08c379a0000000000000000000000000000000000000000000000000000000008152600401610f7790613cb1565b60405180910390fd5b806004015f9054906101000a900460ff1615610fd1576040517f08c379a0000000000000000000000000000000000000000000000000000000008152600401610fc890613d19565b60405180910390fd5b5f610fe460038360010154600254611972565b90506001826004015f6101000a81548160ff0219169083151502179055505f61103a600e60015f9054906101000a900473ffffffffffffffffffffffffffffffffffffffff168633865f015188600301546121ae565b90503373ffffffffffffffffffffffffffffffffffffffff16847f38a3da2c5316d746e9cc5ec327154a07506925b807702216cbd296547f0f7a8e856003015484604051611089929190613d46565b60405180910390a350505050565b5f6110a3600533612397565b905080156110ef573373ffffffffffffffffffffffffffffffffffffffff167f155e8619f4d23b96769599cb9af87da3e06a360082869c18578011da9a06e67060405160405180910390a25b611101600960076006543387876124d1565b823373ffffffffffffffffffffffffffffffffffffffff167f5ea7c0b5bade964890a6c61b75bb90bcc69fbb7fee142ded8f46820ba7d47eee846040516111489190613222565b60405180910390a3505050565b6060611162600983611af4565b9050919050565b611174600933611e68565b3373ffffffffffffffffffffffffffffffffffffffff167fc65a75b7a288595a934865dd0ab8eb43ac6e4f41fa21ad52cae2f31b3a68bca260405160405180910390a2565b5f5f9054906101000a900473ffffffffffffffffffffffffffffffffffffffff1681565b60025481565b5f6111ef60058361277c565b9050919050565b6111fe612e5b565b61120c6007836006546127c8565b9050919050565b5f5f9054906101000a900473ffffffffffffffffffffffffffffffffffffffff1673ffffffffffffffffffffffffffffffffffffffff163373ffffffffffffffffffffffffffffffffffffffff16146112a1576040517f08c379a000000000000000000000000000000000000000000000000000000000815260040161129890613b79565b60405180910390fd5b6112af600382600254612913565b807f5a8c2838b8a0d6051ed70e935e8a8044aa5bb9e8293798e08cb399367fb2d9a560405160405180910390a250565b6112e7612e8e565b6112f2600583612990565b9050919050565b5f6113076009600784612ae0565b9050919050565b60065481565b61131c612dd5565b6113296003600484612bb6565b9050919050565b5f60045f3373ffffffffffffffffffffffffffffffffffffffff1673ffffffffffffffffffffffffffffffffffffffff1681526020019081526020015f205490505f81036113b3576040517f08c379a00000000000000000000000000000000000000000000000000000000081526004016113aa9061396e565b60405180910390fd5b8060075f8481526020019081526020015f206001015414611409576040517f08c379a000000000000000000000000000000000000000000000000000000000815260040161140090613be1565b60405180910390fd5b611414600783612d6d565b817f241c84b17626110b8c42e26f8f7de483066e7f266953509e01046f09e6fdd6cc60405160405180910390a25050565b5f73ffffffffffffffffffffffffffffffffffffffff168373ffffffffffffffffffffffffffffffffffffffff16036114b3576040517f08c379a00000000000000000000000000000000000000000000000000000000081526004016114aa90613db7565b60405180910390fd5b5f82829050116114f8576040517f08c379a00000000000000000000000000000000000000000000000000000000081526004016114ef90613e1f565b60405180910390fd5b5f855f8573ffffffffffffffffffffffffffffffffffffffff1673ffffffffffffffffffffffffffffffffffffffff1681526020019081526020015f205414611576576040517f08c379a000000000000000000000000000000000000000000000000000000000815260040161156d90613e87565b60405180910390fd5b60405180608001604052808473ffffffffffffffffffffffffffffffffffffffff16815260200183838080601f0160208091040260200160405190810160405280939291908181526020018383808284375f81840152601f19601f82011690508083019250505050505050815260200160011515815260200142815250865f8681526020019081526020015f205f820151815f015f6101000a81548173ffffffffffffffffffffffffffffffffffffffff021916908373ffffffffffffffffffffffffffffffffffffffff160217905550602082015181600101908161165c91906140e0565b506040820151816002015f6101000a81548160ff0219169083151502179055506060820151816003015590505083855f8573ffffffffffffffffffffffffffffffffffffffff1673ffffffffffffffffffffffffffffffffffffffff1681526020019081526020015f2081905550505050505050565b6060825f8381526020019081526020015f2080548060200260200160405190810160405280929190818152602001828054801561172c57602002820191905f5260205f20905b815481526020019060010190808311611718575b5050505050905092915050565b5f848490501161177e576040517f08c379a000000000000000000000000000000000000000000000000000000000815260040161177590613e1f565b60405180910390fd5b5f82116117c0576040517f08c379a00000000000000000000000000000000000000000000000000000000081526004016117b7906141f9565b60405180910390fd5b6040518060c0016040528087815260200186815260200185858080601f0160208091040260200160405190810160405280939291908181526020018383808284375f81840152601f19601f82011690508083019250505050505050815260200183815260200182815260200160011515815250885f8881526020019081526020015f205f820151815f015560208201518160010155604082015181600201908161186a91906140e0565b50606082015181600301556080820151816004015560a0820151816005015f6101000a81548160ff021916908315150217905550905050865f8681526020019081526020015f2086908060018154018082558091505060019003905f5260205f20015f90919091909150555050505050505050565b6060825f8373ffffffffffffffffffffffffffffffffffffffff1673ffffffffffffffffffffffffffffffffffffffff1681526020019081526020015f2080548060200260200160405190810160405280929190818152602001828054801561196557602002820191905f5260205f20905b815481526020019060010190808311611951575b5050505050905092915050565b61197a612dd5565b5f831180156119895750818311155b6119c8576040517f08c379a00000000000000000000000000000000000000000000000000000000081526004016119bf90614261565b60405180910390fd5b835f8481526020019081526020015f206040518060800160405290815f82015f9054906101000a900473ffffffffffffffffffffffffffffffffffffffff1673ffffffffffffffffffffffffffffffffffffffff1673ffffffffffffffffffffffffffffffffffffffff168152602001600182018054611a4790613eff565b80601f0160208091040260200160405190810160405280929190818152602001828054611a7390613eff565b8015611abe5780601f10611a9557610100808354040283529160200191611abe565b820191905f5260205f20905b815481529060010190602001808311611aa157829003601f168201915b50505050508152602001600282015f9054906101000a900460ff1615151515815260200160038201548152505090509392505050565b6060825f8373ffffffffffffffffffffffffffffffffffffffff1673ffffffffffffffffffffffffffffffffffffffff1681526020019081526020015f20805480602002602001604051908101604052809291908181526020015f905b82821015611b94578382905f5260205f2090600202016040518060400160405290815f820154815260200160018201548152505081526020019060010190611b51565b50505050905092915050565b5f5f825111611be4576040517f08c379a0000000000000000000000000000000000000000000000000000000008152600401611bdb90613a7c565b60405180910390fd5b5f895f8781526020019081526020015f20905084815f015f6101000a81548173ffffffffffffffffffffffffffffffffffffffff021916908373ffffffffffffffffffffffffffffffffffffffff1602179055508381600101819055504281600501819055505f5f90505b8351811015611dbd575f848281518110611c6c57611c6b613a9a565b5b60200260200101515f015190505f858381518110611c8d57611c8c613a9a565b5b6020026020010151602001519050808a5f8481526020019081526020015f20600401541015611cf1576040517f08c379a0000000000000000000000000000000000000000000000000000000008152600401611ce8906142c9565b60405180910390fd5b5f8a5f8481526020019081526020015f2060030154905084600201604051806060016040528085815260200184815260200183815250908060018154018082558091505060019003905f5260205f2090600302015f909190919091505f820151815f0155602082015181600101556040820151816002015550508181611d7791906142e7565b86611d829190614328565b9550818b5f8581526020019081526020015f206004015f828254611da6919061435b565b925050819055505050508080600101915050611c4f565b50818160030181905550885f8673ffffffffffffffffffffffffffffffffffffffff1673ffffffffffffffffffffffffffffffffffffffff1681526020019081526020015f2086908060018154018082558091505060019003905f5260205f20015f9091909190915055875f8581526020019081526020015f2086908060018154018082558091505060019003905f5260205f20015f90919091909150555098975050505050505050565b815f8273ffffffffffffffffffffffffffffffffffffffff1673ffffffffffffffffffffffffffffffffffffffff1681526020019081526020015f205f611eaf9190612ec4565b5050565b5f82118015611ec25750808211155b611f01576040517f08c379a0000000000000000000000000000000000000000000000000000000008152600401611ef890614261565b60405180910390fd5b6001835f8481526020019081526020015f206002015f6101000a81548160ff021916908315150217905550505050565b6060825f8381526020019081526020015f20805480602002602001604051908101604052809291908181526020018280548015611f8b57602002820191905f5260205f20905b815481526020019060010190808311611f77575b5050505050905092915050565b5f8484905011611fdd576040517f08c379a0000000000000000000000000000000000000000000000000000000008152600401611fd490613e1f565b60405180910390fd5b5f821161201f576040517f08c379a0000000000000000000000000000000000000000000000000000000008152600401612016906141f9565b60405180910390fd5b8383875f8881526020019081526020015f206002019182612041929190614398565b5081865f8781526020019081526020015f206003018190555080865f8781526020019081526020015f2060040181905550505050505050565b612082612d9b565b825f8381526020019081526020015f206040518060800160405290815f82015f9054906101000a900473ffffffffffffffffffffffffffffffffffffffff1673ffffffffffffffffffffffffffffffffffffffff1673ffffffffffffffffffffffffffffffffffffffff1681526020016001820154815260200160028201548152602001600382015481525050905092915050565b6001825f8381526020019081526020015f206005015f6101000a81548160ff0219169083151502179055505050565b5f5f831180156121565750818311155b612195576040517f08c379a000000000000000000000000000000000000000000000000000000000815260040161218c906144af565b60405180910390fd5b835f8481526020019081526020015f2090509392505050565b5f5f82116121f1576040517f08c379a00000000000000000000000000000000000000000000000000000000081526004016121e890614517565b60405180910390fd5b5f8673ffffffffffffffffffffffffffffffffffffffff166323b872dd8686866040518463ffffffff1660e01b815260040161222f93929190614535565b6020604051808303815f875af115801561224b573d5f5f3e3d5ffd5b505050506040513d601f19601f8201168201806040525081019061226f9190614594565b9050806122b1576040517f08c379a00000000000000000000000000000000000000000000000000000000081526004016122a890614609565b60405180910390fd5b858584426040516020016122c8949392919061468c565b60405160208183030381529060405280519060200120915060405180608001604052808673ffffffffffffffffffffffffffffffffffffffff16815260200184815260200183815260200142815250885f8881526020019081526020015f205f820151815f015f6101000a81548173ffffffffffffffffffffffffffffffffffffffff021916908373ffffffffffffffffffffffffffffffffffffffff160217905550602082015181600101556040820151816002015560608201518160030155905050509695505050505050565b5f5f835f8473ffffffffffffffffffffffffffffffffffffffff1673ffffffffffffffffffffffffffffffffffffffff1681526020019081526020015f2060010154036124c75760405180606001604052808373ffffffffffffffffffffffffffffffffffffffff16815260200142815260200160011515815250835f8473ffffffffffffffffffffffffffffffffffffffff1673ffffffffffffffffffffffffffffffffffffffff1681526020019081526020015f205f820151815f015f6101000a81548173ffffffffffffffffffffffffffffffffffffffff021916908373ffffffffffffffffffffffffffffffffffffffff160217905550602082015181600101556040820151816002015f6101000a81548160ff021916908315150217905550905050600190506124cb565b5f90505b92915050565b5f8111612513576040517f08c379a000000000000000000000000000000000000000000000000000000000815260040161250a90614723565b60405180910390fd5b5f821180156125225750838211155b612561576040517f08c379a00000000000000000000000000000000000000000000000000000000081526004016125589061478b565b60405180910390fd5b845f8381526020019081526020015f206005015f9054906101000a900460ff166125c0576040517f08c379a00000000000000000000000000000000000000000000000000000000081526004016125b7906147f3565b60405180910390fd5b80855f8481526020019081526020015f20600401541015612616576040517f08c379a000000000000000000000000000000000000000000000000000000000815260040161260d906142c9565b60405180910390fd5b5f865f8573ffffffffffffffffffffffffffffffffffffffff1673ffffffffffffffffffffffffffffffffffffffff1681526020019081526020015f2090505f5f90505b81805490508110156126da578382828154811061267a57612679613a9a565b5b905f5260205f2090600202015f0154036126cd57828282815481106126a2576126a1613a9a565b5b905f5260205f2090600202016001015f8282546126bf9190614328565b925050819055505050612774565b808060010191505061265a565b506014818054905010612722576040517f08c379a00000000000000000000000000000000000000000000000000000000081526004016127199061485b565b60405180910390fd5b80604051806040016040528085815260200184815250908060018154018082558091505060019003905f5260205f2090600202015f909190919091505f820151815f0155602082015181600101555050505b505050505050565b5f5f835f8473ffffffffffffffffffffffffffffffffffffffff1673ffffffffffffffffffffffffffffffffffffffff1681526020019081526020015f20600101541415905092915050565b6127d0612e5b565b5f831180156127df5750818311155b61281e576040517f08c379a00000000000000000000000000000000000000000000000000000000081526004016128159061478b565b60405180910390fd5b835f8481526020019081526020015f206040518060c00160405290815f82015481526020016001820154815260200160028201805461285c90613eff565b80601f016020809104026020016040519081016040528092919081815260200182805461288890613eff565b80156128d35780601f106128aa576101008083540402835291602001916128d3565b820191905f5260205f20905b8154815290600101906020018083116128b657829003601f168201915b505050505081526020016003820154815260200160048201548152602001600582015f9054906101000a900460ff16151515158152505090509392505050565b5f821180156129225750808211155b612961576040517f08c379a000000000000000000000000000000000000000000000000000000000815260040161295890614261565b60405180910390fd5b5f835f8481526020019081526020015f206002015f6101000a81548160ff021916908315150217905550505050565b612998612e8e565b5f835f8473ffffffffffffffffffffffffffffffffffffffff1673ffffffffffffffffffffffffffffffffffffffff1681526020019081526020015f206001015403612a19576040517f08c379a0000000000000000000000000000000000000000000000000000000008152600401612a10906148c3565b60405180910390fd5b825f8373ffffffffffffffffffffffffffffffffffffffff1673ffffffffffffffffffffffffffffffffffffffff1681526020019081526020015f206040518060600160405290815f82015f9054906101000a900473ffffffffffffffffffffffffffffffffffffffff1673ffffffffffffffffffffffffffffffffffffffff1673ffffffffffffffffffffffffffffffffffffffff16815260200160018201548152602001600282015f9054906101000a900460ff161515151581525050905092915050565b5f5f845f8473ffffffffffffffffffffffffffffffffffffffff1673ffffffffffffffffffffffffffffffffffffffff1681526020019081526020015f2090505f5f90505b8180549050811015612bad57818181548110612b4457612b43613a9a565b5b905f5260205f20906002020160010154855f848481548110612b6957612b68613a9a565b5b905f5260205f2090600202015f015481526020019081526020015f2060030154612b9391906142e7565b83612b9e9190614328565b92508080600101915050612b25565b50509392505050565b612bbe612dd5565b5f835f8473ffffffffffffffffffffffffffffffffffffffff1673ffffffffffffffffffffffffffffffffffffffff1681526020019081526020015f205490505f8103612c40576040517f08c379a0000000000000000000000000000000000000000000000000000000008152600401612c3790614261565b60405180910390fd5b845f8281526020019081526020015f206040518060800160405290815f82015f9054906101000a900473ffffffffffffffffffffffffffffffffffffffff1673ffffffffffffffffffffffffffffffffffffffff1673ffffffffffffffffffffffffffffffffffffffff168152602001600182018054612cbf90613eff565b80601f0160208091040260200160405190810160405280929190818152602001828054612ceb90613eff565b8015612d365780601f10612d0d57610100808354040283529160200191612d36565b820191905f5260205f20905b815481529060010190602001808311612d1957829003601f168201915b50505050508152602001600282015f9054906101000a900460ff161515151581526020016003820154815250509150509392505050565b5f825f8381526020019081526020015f206005015f6101000a81548160ff0219169083151502179055505050565b60405180608001604052805f73ffffffffffffffffffffffffffffffffffffffff1681526020015f81526020015f81526020015f81525090565b60405180608001604052805f73ffffffffffffffffffffffffffffffffffffffff168152602001606081526020015f151581526020015f81525090565b6040518060c001604052805f73ffffffffffffffffffffffffffffffffffffffff1681526020015f8152602001606081526020015f81526020015f151581526020015f81525090565b6040518060c001604052805f81526020015f8152602001606081526020015f81526020015f81526020015f151581525090565b60405180606001604052805f73ffffffffffffffffffffffffffffffffffffffff1681526020015f81526020015f151581525090565b5080545f8255600202905f5260205f2090612edf9190612ee2565b50565b5f5b80821115612f07578281015f5f82015f9055600182015f90555050600201612ee4565b505090565b5f5ffd5b5f5ffd5b5f5ffd5b5f5ffd5b5f5ffd5b5f5f83601f840112612f3557612f34612f14565b5b8235905067ffffffffffffffff811115612f5257612f51612f18565b5b602083019150836001820283011115612f6e57612f6d612f1c565b5b9250929050565b5f5f60208385031215612f8b57612f8a612f0c565b5b5f83013567ffffffffffffffff811115612fa857612fa7612f10565b5b612fb485828601612f20565b92509250509250929050565b5f819050919050565b612fd281612fc0565b8114612fdc575f5ffd5b50565b5f81359050612fed81612fc9565b92915050565b5f6020828403121561300857613007612f0c565b5b5f61301584828501612fdf565b91505092915050565b5f81519050919050565b5f82825260208201905092915050565b5f819050602082019050919050565b61305081612fc0565b82525050565b5f6130618383613047565b60208301905092915050565b5f602082019050919050565b5f6130838261301e565b61308d8185613028565b935061309883613038565b805f5b838110156130c85781516130af8882613056565b97506130ba8361306d565b92505060018101905061309b565b5085935050505092915050565b5f6020820190508181035f8301526130ed8184613079565b905092915050565b5f73ffffffffffffffffffffffffffffffffffffffff82169050919050565b5f61311e826130f5565b9050919050565b61312e81613114565b82525050565b5f6020820190506131475f830184613125565b92915050565b5f5f5f5f6060858703121561316557613164612f0c565b5b5f85013567ffffffffffffffff81111561318257613181612f10565b5b61318e87828801612f20565b945094505060206131a187828801612fdf565b92505060406131b287828801612fdf565b91505092959194509250565b6131c781613114565b81146131d1575f5ffd5b50565b5f813590506131e2816131be565b92915050565b5f602082840312156131fd576131fc612f0c565b5b5f61320a848285016131d4565b91505092915050565b61321c81612fc0565b82525050565b5f6020820190506132355f830184613213565b92915050565b5f5f5f5f5f6080868803121561325457613253612f0c565b5b5f61326188828901612fdf565b955050602086013567ffffffffffffffff81111561328257613281612f10565b5b61328e88828901612f20565b945094505060406132a188828901612fdf565b92505060606132b288828901612fdf565b9150509295509295909350565b6132c881613114565b82525050565b5f819050919050565b6132e0816132ce565b82525050565b608082015f8201516132fa5f8501826132bf565b50602082015161330d6020850182613047565b50604082015161332060408501826132d7565b5060608201516133336060850182613047565b50505050565b5f60808201905061334c5f8301846132e6565b92915050565b5f81519050919050565b5f82825260208201905092915050565b8281835e5f83830152505050565b5f601f19601f8301169050919050565b5f61339482613352565b61339e818561335c565b93506133ae81856020860161336c565b6133b78161337a565b840191505092915050565b5f8115159050919050565b6133d6816133c2565b82525050565b5f608083015f8301516133f15f8601826132bf565b5060208301518482036020860152613409828261338a565b915050604083015161341e60408601826133cd565b5060608301516134316060860182613047565b508091505092915050565b5f6020820190508181035f83015261345481846133dc565b905092915050565b5f81519050919050565b5f82825260208201905092915050565b5f819050602082019050919050565b606082015f8201516134995f850182613047565b5060208201516134ac6020850182613047565b5060408201516134bf6040850182613047565b50505050565b5f6134d08383613485565b60608301905092915050565b5f602082019050919050565b5f6134f28261345c565b6134fc8185613466565b935061350783613476565b805f5b8381101561353757815161351e88826134c5565b9750613529836134dc565b92505060018101905061350a565b5085935050505092915050565b5f60c083015f8301516135595f8601826132bf565b50602083015161356c6020860182613047565b506040830151848203604086015261358482826134e8565b91505060608301516135996060860182613047565b5060808301516135ac60808601826133cd565b5060a08301516135bf60a0860182613047565b508091505092915050565b5f6020820190508181035f8301526135e28184613544565b905092915050565b5f5f60408385031215613600576135ff612f0c565b5b5f61360d85828601612fdf565b925050602061361e85828601612fdf565b9150509250929050565b5f81519050919050565b5f82825260208201905092915050565b5f819050602082019050919050565b604082015f8201516136655f850182613047565b5060208201516136786020850182613047565b50505050565b5f6136898383613651565b60408301905092915050565b5f602082019050919050565b5f6136ab82613628565b6136b58185613632565b93506136c083613642565b805f5b838110156136f05781516136d7888261367e565b97506136e283613695565b9250506001810190506136c3565b5085935050505092915050565b5f6020820190508181035f83015261371581846136a1565b905092915050565b613726816133c2565b82525050565b5f60208201905061373f5f83018461371d565b92915050565b5f60c083015f83015161375a5f860182613047565b50602083015161376d6020860182613047565b5060408301518482036040860152613785828261338a565b915050606083015161379a6060860182613047565b5060808301516137ad6080860182613047565b5060a08301516137c060a08601826133cd565b508091505092915050565b5f6020820190508181035f8301526137e38184613745565b905092915050565b606082015f8201516137ff5f8501826132bf565b5060208201516138126020850182613047565b50604082015161382560408501826133cd565b50505050565b5f60608201905061383e5f8301846137eb565b92915050565b7f4e487b71000000000000000000000000000000000000000000000000000000005f52601160045260245ffd5b5f61387b82612fc0565b91507fffffffffffffffffffffffffffffffffffffffffffffffffffffffffffffffff82036138ad576138ac613844565b5b600182019050919050565b5f82825260208201905092915050565b828183375f83830152505050565b5f6138e183856138b8565b93506138ee8385846138c8565b6138f78361337a565b840190509392505050565b5f6020820190508181035f83015261391b8184866138d6565b90509392505050565b7f4e6f742061207265676973746572656420636f6d70616e7900000000000000005f82015250565b5f6139586018836138b8565b915061396382613924565b602082019050919050565b5f6020820190508181035f8301526139858161394c565b9050919050565b7f436f6d70616e79206e6f742061637469766500000000000000000000000000005f82015250565b5f6139c06012836138b8565b91506139cb8261398c565b602082019050919050565b5f6020820190508181035f8301526139ed816139b4565b9050919050565b5f6060820190508181035f830152613a0d8186886138d6565b9050613a1c6020830185613213565b613a296040830184613213565b95945050505050565b7f4361727420697320656d707479000000000000000000000000000000000000005f82015250565b5f613a66600d836138b8565b9150613a7182613a32565b602082019050919050565b5f6020820190508181035f830152613a9381613a5a565b9050919050565b7f4e487b71000000000000000000000000000000000000000000000000000000005f52603260045260245ffd5b7f50726f6475637420636f6d70616e79206d69736d6174636800000000000000005f82015250565b5f613afb6018836138b8565b9150613b0682613ac7565b602082019050919050565b5f6020820190508181035f830152613b2881613aef565b9050919050565b7f4e6f74206f776e657200000000000000000000000000000000000000000000005f82015250565b5f613b636009836138b8565b9150613b6e82613b2f565b602082019050919050565b5f6020820190508181035f830152613b9081613b57565b9050919050565b7f4e6f7420796f75722070726f64756374000000000000000000000000000000005f82015250565b5f613bcb6010836138b8565b9150613bd682613b97565b602082019050919050565b5f6020820190508181035f830152613bf881613bbf565b9050919050565b7f5061796d656e74206e6f7420666f756e640000000000000000000000000000005f82015250565b5f613c336011836138b8565b9150613c3e82613bff565b602082019050919050565b5f6020820190508181035f830152613c6081613c27565b9050919050565b7f4e6f7420796f757220696e766f696365000000000000000000000000000000005f82015250565b5f613c9b6010836138b8565b9150613ca682613c67565b602082019050919050565b5f6020820190508181035f830152613cc881613c8f565b9050919050565b7f416c7265616479207061696400000000000000000000000000000000000000005f82015250565b5f613d03600c836138b8565b9150613d0e82613ccf565b602082019050919050565b5f6020820190508181035f830152613d3081613cf7565b9050919050565b613d40816132ce565b82525050565b5f604082019050613d595f830185613213565b613d666020830184613d37565b9392505050565b7f496e76616c6964206164647265737300000000000000000000000000000000005f82015250565b5f613da1600f836138b8565b9150613dac82613d6d565b602082019050919050565b5f6020820190508181035f830152613dce81613d95565b9050919050565b7f4e616d65207265717569726564000000000000000000000000000000000000005f82015250565b5f613e09600d836138b8565b9150613e1482613dd5565b602082019050919050565b5f6020820190508181035f830152613e3681613dfd565b9050919050565b7f416c7265616479207265676973746572656400000000000000000000000000005f82015250565b5f613e716012836138b8565b9150613e7c82613e3d565b602082019050919050565b5f6020820190508181035f830152613e9e81613e65565b9050919050565b7f4e487b71000000000000000000000000000000000000000000000000000000005f52604160045260245ffd5b7f4e487b71000000000000000000000000000000000000000000000000000000005f52602260045260245ffd5b5f6002820490506001821680613f1657607f821691505b602082108103613f2957613f28613ed2565b5b50919050565b5f819050815f5260205f209050919050565b5f6020601f8301049050919050565b5f82821b905092915050565b5f60088302613f8b7fffffffffffffffffffffffffffffffffffffffffffffffffffffffffffffffff82613f50565b613f958683613f50565b95508019841693508086168417925050509392505050565b5f819050919050565b5f613fd0613fcb613fc684612fc0565b613fad565b612fc0565b9050919050565b5f819050919050565b613fe983613fb6565b613ffd613ff582613fd7565b848454613f5c565b825550505050565b5f5f905090565b614014614005565b61401f818484613fe0565b505050565b5f5b828110156140455761403a5f82840161400c565b600181019050614026565b505050565b601f82111561409857828211156140975761406481613f2f565b61406d83613f41565b61407685613f41565b6020861015614083575f90505b80830161409282840382614024565b505050505b5b505050565b5f82821c905092915050565b5f6140b85f198460080261409d565b1980831691505092915050565b5f6140d083836140a9565b9150826002028217905092915050565b6140e982613352565b67ffffffffffffffff81111561410257614101613ea5565b5b61410c8254613eff565b61411782828561404a565b5f60209050601f831160018114614148575f8415614136578287015190505b61414085826140c5565b8655506141a7565b601f19841661415686613f2f565b5f5b8281101561417d57848901518255600182019150602085019450602081019050614158565b8683101561419a5784890151614196601f8916826140a9565b8355505b6001600288020188555050505b505050505050565b7f5072696365206d757374206265203e20300000000000000000000000000000005f82015250565b5f6141e36011836138b8565b91506141ee826141af565b602082019050919050565b5f6020820190508181035f830152614210816141d7565b9050919050565b7f436f6d70616e79206e6f7420666f756e640000000000000000000000000000005f82015250565b5f61424b6011836138b8565b915061425682614217565b602082019050919050565b5f6020820190508181035f8301526142788161423f565b9050919050565b7f496e73756666696369656e742073746f636b00000000000000000000000000005f82015250565b5f6142b36012836138b8565b91506142be8261427f565b602082019050919050565b5f6020820190508181035f8301526142e0816142a7565b9050919050565b5f6142f182612fc0565b91506142fc83612fc0565b925082820261430a81612fc0565b9150828204841483151761432157614320613844565b5b5092915050565b5f61433282612fc0565b915061433d83612fc0565b925082820190508082111561435557614354613844565b5b92915050565b5f61436582612fc0565b915061437083612fc0565b925082820390508181111561438857614387613844565b5b92915050565b5f82905092915050565b6143a2838361438e565b67ffffffffffffffff8111156143bb576143ba613ea5565b5b6143c58254613eff565b6143d082828561404a565b5f601f8311600181146143fd575f84156143eb578287013590505b6143f585826140c5565b86555061445c565b601f19841661440b86613f2f565b5f5b828110156144325784890135825560018201915060208501945060208101905061440d565b8683101561444f578489013561444b601f8916826140a9565b8355505b6001600288020188555050505b50505050505050565b7f496e766f696365206e6f7420666f756e640000000000000000000000000000005f82015250565b5f6144996011836138b8565b91506144a482614465565b602082019050919050565b5f6020820190508181035f8301526144c68161448d565b9050919050565b7f416d6f756e74206d757374206265203e203000000000000000000000000000005f82015250565b5f6145016012836138b8565b915061450c826144cd565b602082019050919050565b5f6020820190508181035f83015261452e816144f5565b9050919050565b5f6060820190506145485f830186613125565b6145556020830185613125565b6145626040830184613213565b949350505050565b614573816133c2565b811461457d575f5ffd5b50565b5f8151905061458e8161456a565b92915050565b5f602082840312156145a9576145a8612f0c565b5b5f6145b684828501614580565b91505092915050565b7f5472616e73666572206661696c656400000000000000000000000000000000005f82015250565b5f6145f3600f836138b8565b91506145fe826145bf565b602082019050919050565b5f6020820190508181035f830152614620816145e7565b9050919050565b5f819050919050565b61464161463c82612fc0565b614627565b82525050565b5f8160601b9050919050565b5f61465d82614647565b9050919050565b5f61466e82614653565b9050919050565b61468661468182613114565b614664565b82525050565b5f6146978287614630565b6020820191506146a78286614675565b6014820191506146b78285614630565b6020820191506146c78284614630565b60208201915081905095945050505050565b7f5175616e74697479206d757374206265203e20300000000000000000000000005f82015250565b5f61470d6014836138b8565b9150614718826146d9565b602082019050919050565b5f6020820190508181035f83015261473a81614701565b9050919050565b7f50726f64756374206e6f7420666f756e640000000000000000000000000000005f82015250565b5f6147756011836138b8565b915061478082614741565b602082019050919050565b5f6020820190508181035f8301526147a281614769565b9050919050565b7f50726f64756374206e6f742061637469766500000000000000000000000000005f82015250565b5f6147dd6012836138b8565b91506147e8826147a9565b602082019050919050565b5f6020820190508181035f83015261480a816147d1565b9050919050565b7f436172742069732066756c6c00000000000000000000000000000000000000005f82015250565b5f614845600c836138b8565b915061485082614811565b602082019050919050565b5f6020820190508181035f83015261487281614839565b9050919050565b7f437573746f6d6572206e6f7420666f756e6400000000000000000000000000005f82015250565b5f6148ad6012836138b8565b91506148b882614879565b602082019050919050565b5f6020820190508181035f8301526148da816148a1565b905091905056fea26469706673582212207786ac43b0a945590c581f4f4bbcafb22ceeaab93aaac8e1f43709c66933c72364736f6c63430008210033","linkReferences":{}},"methodIdentifiers":{"activateCompany(uint256)":"1f2c55b0","activateProduct(uint256)":"32f662f6","addProduct(string,uint256,uint256)":"125b0b34","addToCart(uint256,uint256)":"3ab9bbb6","clearCart()":"574fde97","companyCount()":"8e75dd47","createInvoice(uint256)":"1414ef78","deactivateCompany(uint256)":"ba9b3613","deactivateProduct(uint256)":"fd77e5de","euroTokenAddress()":"05fd066a","getCart(address)":"52e33fb5","getCartTotal(address)":"d2b88d6f","getCompanyByAddress(address)":"f117dd5b","getCompanyById(uint256)":"34e2ad59","getCustomer(address)":"cb949e51","getInvoice(uint256)":"3a23cc0a","getInvoicesByCompany(uint256)":"03a30a94","getInvoicesByCustomer(address)":"128236e9","getPayment(uint256)":"3280a836","getProduct(uint256)":"b9db15b4","getProductsByCompany(uint256)":"205062cd","invoiceCount()":"1346f0c4","isCustomerRegistered(address)":"b5975003","owner()":"8da5cb5b","processPayment(uint256)":"3a2f8485","productCount()":"e0f6ef87","registerCompany(string)":"00544194","updateProduct(uint256,string,uint256,uint256)":"2d561787"},"id":19}